{
	"modifers-vs-ifs.sol": {
		"ContractModifiersExample": {
			"abi": [
				{
					"inputs": [],
					"stateMutability": "nonpayable",
					"type": "constructor"
				},
				{
					"inputs": [],
					"name": "message",
					"outputs": [
						{
							"internalType": "string",
							"name": "",
							"type": "string"
						}
					],
					"stateMutability": "view",
					"type": "function"
				},
				{
					"inputs": [],
					"name": "owner",
					"outputs": [
						{
							"internalType": "address",
							"name": "",
							"type": "address"
						}
					],
					"stateMutability": "view",
					"type": "function"
				},
				{
					"inputs": [
						{
							"internalType": "string",
							"name": "newMessage",
							"type": "string"
						}
					],
					"name": "updateMessage",
					"outputs": [],
					"stateMutability": "nonpayable",
					"type": "function"
				}
			],
			"devdoc": {
				"kind": "dev",
				"methods": {},
				"version": 1
			},
			"evm": {
				"assembly": "    /* \"modifers-vs-ifs.sol\":69:646  contract ContractModifiersExample {... */\n  mstore(0x40, 0x80)\n    /* \"modifers-vs-ifs.sol\":486:535  constructor() {... */\n  callvalue\n  dup1\n  iszero\n  tag_1\n  jumpi\n  revert(0x00, 0x00)\ntag_1:\n  pop\n    /* \"modifers-vs-ifs.sol\":518:528  msg.sender */\n  caller\n    /* \"modifers-vs-ifs.sol\":510:515  owner */\n  0x00\n  0x00\n    /* \"modifers-vs-ifs.sol\":510:528  owner = msg.sender */\n  0x0100\n  exp\n  dup2\n  sload\n  dup2\n  0xffffffffffffffffffffffffffffffffffffffff\n  mul\n  not\n  and\n  swap1\n  dup4\n  0xffffffffffffffffffffffffffffffffffffffff\n  and\n  mul\n  or\n  swap1\n  sstore\n  pop\n    /* \"modifers-vs-ifs.sol\":69:646  contract ContractModifiersExample {... */\n  dataSize(sub_0)\n  dup1\n  dataOffset(sub_0)\n  0x00\n  codecopy\n  0x00\n  return\nstop\n\nsub_0: assembly {\n        /* \"modifers-vs-ifs.sol\":69:646  contract ContractModifiersExample {... */\n      mstore(0x40, 0x80)\n      callvalue\n      dup1\n      iszero\n      tag_1\n      jumpi\n      revert(0x00, 0x00)\n    tag_1:\n      pop\n      jumpi(tag_2, lt(calldatasize, 0x04))\n      shr(0xe0, calldataload(0x00))\n      dup1\n      0x1923be24\n      eq\n      tag_3\n      jumpi\n      dup1\n      0x8da5cb5b\n      eq\n      tag_4\n      jumpi\n      dup1\n      0xe21f37ce\n      eq\n      tag_5\n      jumpi\n    tag_2:\n      revert(0x00, 0x00)\n        /* \"modifers-vs-ifs.sol\":542:644  function updateMessage(string memory newMessage) public isOwner { ... */\n    tag_3:\n      tag_6\n      0x04\n      dup1\n      calldatasize\n      sub\n      dup2\n      add\n      swap1\n      tag_7\n      swap2\n      swap1\n      tag_8\n      jump\t// in\n    tag_7:\n      tag_9\n      jump\t// in\n    tag_6:\n      stop\n        /* \"modifers-vs-ifs.sol\":110:130  address public owner */\n    tag_4:\n      tag_10\n      tag_11\n      jump\t// in\n    tag_10:\n      mload(0x40)\n      tag_12\n      swap2\n      swap1\n      tag_13\n      jump\t// in\n    tag_12:\n      mload(0x40)\n      dup1\n      swap2\n      sub\n      swap1\n      return\n        /* \"modifers-vs-ifs.sol\":136:157  string public message */\n    tag_5:\n      tag_14\n      tag_15\n      jump\t// in\n    tag_14:\n      mload(0x40)\n      tag_16\n      swap2\n      swap1\n      tag_17\n      jump\t// in\n    tag_16:\n      mload(0x40)\n      dup1\n      swap2\n      sub\n      swap1\n      return\n        /* \"modifers-vs-ifs.sol\":542:644  function updateMessage(string memory newMessage) public isOwner { ... */\n    tag_9:\n        /* \"modifers-vs-ifs.sol\":305:310  owner */\n      0x00\n      0x00\n      swap1\n      sload\n      swap1\n      0x0100\n      exp\n      swap1\n      div\n      0xffffffffffffffffffffffffffffffffffffffff\n      and\n        /* \"modifers-vs-ifs.sol\":291:310  msg.sender == owner */\n      0xffffffffffffffffffffffffffffffffffffffff\n      and\n        /* \"modifers-vs-ifs.sol\":291:301  msg.sender */\n      caller\n        /* \"modifers-vs-ifs.sol\":291:310  msg.sender == owner */\n      0xffffffffffffffffffffffffffffffffffffffff\n      and\n      eq\n        /* \"modifers-vs-ifs.sol\":283:370  require(msg.sender == owner, \"You need to be the owner in order to update the message\") */\n      tag_19\n      jumpi\n      mload(0x40)\n      0x08c379a000000000000000000000000000000000000000000000000000000000\n      dup2\n      mstore\n      0x04\n      add\n      tag_20\n      swap1\n      tag_21\n      jump\t// in\n    tag_20:\n      mload(0x40)\n      dup1\n      swap2\n      sub\n      swap1\n      revert\n    tag_19:\n        /* \"modifers-vs-ifs.sol\":627:637  newMessage */\n      dup1\n        /* \"modifers-vs-ifs.sol\":617:624  message */\n      0x01\n        /* \"modifers-vs-ifs.sol\":617:637  message = newMessage */\n      swap1\n      dup2\n      tag_23\n      swap2\n      swap1\n      tag_24\n      jump\t// in\n    tag_23:\n      pop\n        /* \"modifers-vs-ifs.sol\":542:644  function updateMessage(string memory newMessage) public isOwner { ... */\n      pop\n      jump\t// out\n        /* \"modifers-vs-ifs.sol\":110:130  address public owner */\n    tag_11:\n      0x00\n      0x00\n      swap1\n      sload\n      swap1\n      0x0100\n      exp\n      swap1\n      div\n      0xffffffffffffffffffffffffffffffffffffffff\n      and\n      dup2\n      jump\t// out\n        /* \"modifers-vs-ifs.sol\":136:157  string public message */\n    tag_15:\n      0x01\n      dup1\n      sload\n      tag_25\n      swap1\n      tag_26\n      jump\t// in\n    tag_25:\n      dup1\n      0x1f\n      add\n      0x20\n      dup1\n      swap2\n      div\n      mul\n      0x20\n      add\n      mload(0x40)\n      swap1\n      dup2\n      add\n      0x40\n      mstore\n      dup1\n      swap3\n      swap2\n      swap1\n      dup2\n      dup2\n      mstore\n      0x20\n      add\n      dup3\n      dup1\n      sload\n      tag_27\n      swap1\n      tag_26\n      jump\t// in\n    tag_27:\n      dup1\n      iszero\n      tag_28\n      jumpi\n      dup1\n      0x1f\n      lt\n      tag_29\n      jumpi\n      0x0100\n      dup1\n      dup4\n      sload\n      div\n      mul\n      dup4\n      mstore\n      swap2\n      0x20\n      add\n      swap2\n      jump(tag_28)\n    tag_29:\n      dup3\n      add\n      swap2\n      swap1\n      0x00\n      mstore\n      keccak256(0x00, 0x20)\n      swap1\n    tag_30:\n      dup2\n      sload\n      dup2\n      mstore\n      swap1\n      0x01\n      add\n      swap1\n      0x20\n      add\n      dup1\n      dup4\n      gt\n      tag_30\n      jumpi\n      dup3\n      swap1\n      sub\n      0x1f\n      and\n      dup3\n      add\n      swap2\n    tag_28:\n      pop\n      pop\n      pop\n      pop\n      pop\n      dup2\n      jump\t// out\n        /* \"#utility.yul\":7:82   */\n    tag_31:\n        /* \"#utility.yul\":40:46   */\n      0x00\n        /* \"#utility.yul\":73:75   */\n      0x40\n        /* \"#utility.yul\":67:76   */\n      mload\n        /* \"#utility.yul\":57:76   */\n      swap1\n      pop\n        /* \"#utility.yul\":7:82   */\n      swap1\n      jump\t// out\n        /* \"#utility.yul\":88:205   */\n    tag_32:\n        /* \"#utility.yul\":197:198   */\n      0x00\n        /* \"#utility.yul\":194:195   */\n      0x00\n        /* \"#utility.yul\":187:199   */\n      revert\n        /* \"#utility.yul\":211:328   */\n    tag_33:\n        /* \"#utility.yul\":320:321   */\n      0x00\n        /* \"#utility.yul\":317:318   */\n      0x00\n        /* \"#utility.yul\":310:322   */\n      revert\n        /* \"#utility.yul\":334:451   */\n    tag_34:\n        /* \"#utility.yul\":443:444   */\n      0x00\n        /* \"#utility.yul\":440:441   */\n      0x00\n        /* \"#utility.yul\":433:445   */\n      revert\n        /* \"#utility.yul\":457:574   */\n    tag_35:\n        /* \"#utility.yul\":566:567   */\n      0x00\n        /* \"#utility.yul\":563:564   */\n      0x00\n        /* \"#utility.yul\":556:568   */\n      revert\n        /* \"#utility.yul\":580:682   */\n    tag_36:\n        /* \"#utility.yul\":621:627   */\n      0x00\n        /* \"#utility.yul\":672:674   */\n      0x1f\n        /* \"#utility.yul\":668:675   */\n      not\n        /* \"#utility.yul\":663:665   */\n      0x1f\n        /* \"#utility.yul\":656:661   */\n      dup4\n        /* \"#utility.yul\":652:666   */\n      add\n        /* \"#utility.yul\":648:676   */\n      and\n        /* \"#utility.yul\":638:676   */\n      swap1\n      pop\n        /* \"#utility.yul\":580:682   */\n      swap2\n      swap1\n      pop\n      jump\t// out\n        /* \"#utility.yul\":688:868   */\n    tag_37:\n        /* \"#utility.yul\":736:813   */\n      0x4e487b7100000000000000000000000000000000000000000000000000000000\n        /* \"#utility.yul\":733:734   */\n      0x00\n        /* \"#utility.yul\":726:814   */\n      mstore\n        /* \"#utility.yul\":833:837   */\n      0x41\n        /* \"#utility.yul\":830:831   */\n      0x04\n        /* \"#utility.yul\":823:838   */\n      mstore\n        /* \"#utility.yul\":857:861   */\n      0x24\n        /* \"#utility.yul\":854:855   */\n      0x00\n        /* \"#utility.yul\":847:862   */\n      revert\n        /* \"#utility.yul\":874:1155   */\n    tag_38:\n        /* \"#utility.yul\":957:984   */\n      tag_79\n        /* \"#utility.yul\":979:983   */\n      dup3\n        /* \"#utility.yul\":957:984   */\n      tag_36\n      jump\t// in\n    tag_79:\n        /* \"#utility.yul\":949:955   */\n      dup2\n        /* \"#utility.yul\":945:985   */\n      add\n        /* \"#utility.yul\":1087:1093   */\n      dup2\n        /* \"#utility.yul\":1075:1085   */\n      dup2\n        /* \"#utility.yul\":1072:1094   */\n      lt\n        /* \"#utility.yul\":1051:1069   */\n      0xffffffffffffffff\n        /* \"#utility.yul\":1039:1049   */\n      dup3\n        /* \"#utility.yul\":1036:1070   */\n      gt\n        /* \"#utility.yul\":1033:1095   */\n      or\n        /* \"#utility.yul\":1030:1118   */\n      iszero\n      tag_80\n      jumpi\n        /* \"#utility.yul\":1098:1116   */\n      tag_81\n      tag_37\n      jump\t// in\n    tag_81:\n        /* \"#utility.yul\":1030:1118   */\n    tag_80:\n        /* \"#utility.yul\":1138:1148   */\n      dup1\n        /* \"#utility.yul\":1134:1136   */\n      0x40\n        /* \"#utility.yul\":1127:1149   */\n      mstore\n        /* \"#utility.yul\":917:1155   */\n      pop\n        /* \"#utility.yul\":874:1155   */\n      pop\n      pop\n      jump\t// out\n        /* \"#utility.yul\":1161:1290   */\n    tag_39:\n        /* \"#utility.yul\":1195:1201   */\n      0x00\n        /* \"#utility.yul\":1222:1242   */\n      tag_83\n      tag_31\n      jump\t// in\n    tag_83:\n        /* \"#utility.yul\":1212:1242   */\n      swap1\n      pop\n        /* \"#utility.yul\":1251:1284   */\n      tag_84\n        /* \"#utility.yul\":1279:1283   */\n      dup3\n        /* \"#utility.yul\":1271:1277   */\n      dup3\n        /* \"#utility.yul\":1251:1284   */\n      tag_38\n      jump\t// in\n    tag_84:\n        /* \"#utility.yul\":1161:1290   */\n      swap2\n      swap1\n      pop\n      jump\t// out\n        /* \"#utility.yul\":1296:1604   */\n    tag_40:\n        /* \"#utility.yul\":1358:1362   */\n      0x00\n        /* \"#utility.yul\":1448:1466   */\n      0xffffffffffffffff\n        /* \"#utility.yul\":1440:1446   */\n      dup3\n        /* \"#utility.yul\":1437:1467   */\n      gt\n        /* \"#utility.yul\":1434:1490   */\n      iszero\n      tag_86\n      jumpi\n        /* \"#utility.yul\":1470:1488   */\n      tag_87\n      tag_37\n      jump\t// in\n    tag_87:\n        /* \"#utility.yul\":1434:1490   */\n    tag_86:\n        /* \"#utility.yul\":1508:1537   */\n      tag_88\n        /* \"#utility.yul\":1530:1536   */\n      dup3\n        /* \"#utility.yul\":1508:1537   */\n      tag_36\n      jump\t// in\n    tag_88:\n        /* \"#utility.yul\":1500:1537   */\n      swap1\n      pop\n        /* \"#utility.yul\":1592:1596   */\n      0x20\n        /* \"#utility.yul\":1586:1590   */\n      dup2\n        /* \"#utility.yul\":1582:1597   */\n      add\n        /* \"#utility.yul\":1574:1597   */\n      swap1\n      pop\n        /* \"#utility.yul\":1296:1604   */\n      swap2\n      swap1\n      pop\n      jump\t// out\n        /* \"#utility.yul\":1610:1758   */\n    tag_41:\n        /* \"#utility.yul\":1708:1714   */\n      dup3\n        /* \"#utility.yul\":1703:1706   */\n      dup2\n        /* \"#utility.yul\":1698:1701   */\n      dup4\n        /* \"#utility.yul\":1685:1715   */\n      calldatacopy\n        /* \"#utility.yul\":1749:1750   */\n      0x00\n        /* \"#utility.yul\":1740:1746   */\n      dup4\n        /* \"#utility.yul\":1735:1738   */\n      dup4\n        /* \"#utility.yul\":1731:1747   */\n      add\n        /* \"#utility.yul\":1724:1751   */\n      mstore\n        /* \"#utility.yul\":1610:1758   */\n      pop\n      pop\n      pop\n      jump\t// out\n        /* \"#utility.yul\":1764:2189   */\n    tag_42:\n        /* \"#utility.yul\":1842:1847   */\n      0x00\n        /* \"#utility.yul\":1867:1933   */\n      tag_91\n        /* \"#utility.yul\":1883:1932   */\n      tag_92\n        /* \"#utility.yul\":1925:1931   */\n      dup5\n        /* \"#utility.yul\":1883:1932   */\n      tag_40\n      jump\t// in\n    tag_92:\n        /* \"#utility.yul\":1867:1933   */\n      tag_39\n      jump\t// in\n    tag_91:\n        /* \"#utility.yul\":1858:1933   */\n      swap1\n      pop\n        /* \"#utility.yul\":1956:1962   */\n      dup3\n        /* \"#utility.yul\":1949:1954   */\n      dup2\n        /* \"#utility.yul\":1942:1963   */\n      mstore\n        /* \"#utility.yul\":1994:1998   */\n      0x20\n        /* \"#utility.yul\":1987:1992   */\n      dup2\n        /* \"#utility.yul\":1983:1999   */\n      add\n        /* \"#utility.yul\":2032:2035   */\n      dup5\n        /* \"#utility.yul\":2023:2029   */\n      dup5\n        /* \"#utility.yul\":2018:2021   */\n      dup5\n        /* \"#utility.yul\":2014:2030   */\n      add\n        /* \"#utility.yul\":2011:2036   */\n      gt\n        /* \"#utility.yul\":2008:2120   */\n      iszero\n      tag_93\n      jumpi\n        /* \"#utility.yul\":2039:2118   */\n      tag_94\n      tag_35\n      jump\t// in\n    tag_94:\n        /* \"#utility.yul\":2008:2120   */\n    tag_93:\n        /* \"#utility.yul\":2129:2183   */\n      tag_95\n        /* \"#utility.yul\":2176:2182   */\n      dup5\n        /* \"#utility.yul\":2171:2174   */\n      dup3\n        /* \"#utility.yul\":2166:2169   */\n      dup6\n        /* \"#utility.yul\":2129:2183   */\n      tag_41\n      jump\t// in\n    tag_95:\n        /* \"#utility.yul\":1848:2189   */\n      pop\n        /* \"#utility.yul\":1764:2189   */\n      swap4\n      swap3\n      pop\n      pop\n      pop\n      jump\t// out\n        /* \"#utility.yul\":2209:2549   */\n    tag_43:\n        /* \"#utility.yul\":2265:2270   */\n      0x00\n        /* \"#utility.yul\":2314:2317   */\n      dup3\n        /* \"#utility.yul\":2307:2311   */\n      0x1f\n        /* \"#utility.yul\":2299:2305   */\n      dup4\n        /* \"#utility.yul\":2295:2312   */\n      add\n        /* \"#utility.yul\":2291:2318   */\n      slt\n        /* \"#utility.yul\":2281:2403   */\n      tag_97\n      jumpi\n        /* \"#utility.yul\":2322:2401   */\n      tag_98\n      tag_34\n      jump\t// in\n    tag_98:\n        /* \"#utility.yul\":2281:2403   */\n    tag_97:\n        /* \"#utility.yul\":2439:2445   */\n      dup2\n        /* \"#utility.yul\":2426:2446   */\n      calldataload\n        /* \"#utility.yul\":2464:2543   */\n      tag_99\n        /* \"#utility.yul\":2539:2542   */\n      dup5\n        /* \"#utility.yul\":2531:2537   */\n      dup3\n        /* \"#utility.yul\":2524:2528   */\n      0x20\n        /* \"#utility.yul\":2516:2522   */\n      dup7\n        /* \"#utility.yul\":2512:2529   */\n      add\n        /* \"#utility.yul\":2464:2543   */\n      tag_42\n      jump\t// in\n    tag_99:\n        /* \"#utility.yul\":2455:2543   */\n      swap2\n      pop\n        /* \"#utility.yul\":2271:2549   */\n      pop\n        /* \"#utility.yul\":2209:2549   */\n      swap3\n      swap2\n      pop\n      pop\n      jump\t// out\n        /* \"#utility.yul\":2555:3064   */\n    tag_8:\n        /* \"#utility.yul\":2624:2630   */\n      0x00\n        /* \"#utility.yul\":2673:2675   */\n      0x20\n        /* \"#utility.yul\":2661:2670   */\n      dup3\n        /* \"#utility.yul\":2652:2659   */\n      dup5\n        /* \"#utility.yul\":2648:2671   */\n      sub\n        /* \"#utility.yul\":2644:2676   */\n      slt\n        /* \"#utility.yul\":2641:2760   */\n      iszero\n      tag_101\n      jumpi\n        /* \"#utility.yul\":2679:2758   */\n      tag_102\n      tag_32\n      jump\t// in\n    tag_102:\n        /* \"#utility.yul\":2641:2760   */\n    tag_101:\n        /* \"#utility.yul\":2827:2828   */\n      0x00\n        /* \"#utility.yul\":2816:2825   */\n      dup3\n        /* \"#utility.yul\":2812:2829   */\n      add\n        /* \"#utility.yul\":2799:2830   */\n      calldataload\n        /* \"#utility.yul\":2857:2875   */\n      0xffffffffffffffff\n        /* \"#utility.yul\":2849:2855   */\n      dup2\n        /* \"#utility.yul\":2846:2876   */\n      gt\n        /* \"#utility.yul\":2843:2960   */\n      iszero\n      tag_103\n      jumpi\n        /* \"#utility.yul\":2879:2958   */\n      tag_104\n      tag_33\n      jump\t// in\n    tag_104:\n        /* \"#utility.yul\":2843:2960   */\n    tag_103:\n        /* \"#utility.yul\":2984:3047   */\n      tag_105\n        /* \"#utility.yul\":3039:3046   */\n      dup5\n        /* \"#utility.yul\":3030:3036   */\n      dup3\n        /* \"#utility.yul\":3019:3028   */\n      dup6\n        /* \"#utility.yul\":3015:3037   */\n      add\n        /* \"#utility.yul\":2984:3047   */\n      tag_43\n      jump\t// in\n    tag_105:\n        /* \"#utility.yul\":2974:3047   */\n      swap2\n      pop\n        /* \"#utility.yul\":2770:3057   */\n      pop\n        /* \"#utility.yul\":2555:3064   */\n      swap3\n      swap2\n      pop\n      pop\n      jump\t// out\n        /* \"#utility.yul\":3070:3196   */\n    tag_44:\n        /* \"#utility.yul\":3107:3114   */\n      0x00\n        /* \"#utility.yul\":3147:3189   */\n      0xffffffffffffffffffffffffffffffffffffffff\n        /* \"#utility.yul\":3140:3145   */\n      dup3\n        /* \"#utility.yul\":3136:3190   */\n      and\n        /* \"#utility.yul\":3125:3190   */\n      swap1\n      pop\n        /* \"#utility.yul\":3070:3196   */\n      swap2\n      swap1\n      pop\n      jump\t// out\n        /* \"#utility.yul\":3202:3298   */\n    tag_45:\n        /* \"#utility.yul\":3239:3246   */\n      0x00\n        /* \"#utility.yul\":3268:3292   */\n      tag_108\n        /* \"#utility.yul\":3286:3291   */\n      dup3\n        /* \"#utility.yul\":3268:3292   */\n      tag_44\n      jump\t// in\n    tag_108:\n        /* \"#utility.yul\":3257:3292   */\n      swap1\n      pop\n        /* \"#utility.yul\":3202:3298   */\n      swap2\n      swap1\n      pop\n      jump\t// out\n        /* \"#utility.yul\":3304:3422   */\n    tag_46:\n        /* \"#utility.yul\":3391:3415   */\n      tag_110\n        /* \"#utility.yul\":3409:3414   */\n      dup2\n        /* \"#utility.yul\":3391:3415   */\n      tag_45\n      jump\t// in\n    tag_110:\n        /* \"#utility.yul\":3386:3389   */\n      dup3\n        /* \"#utility.yul\":3379:3416   */\n      mstore\n        /* \"#utility.yul\":3304:3422   */\n      pop\n      pop\n      jump\t// out\n        /* \"#utility.yul\":3428:3650   */\n    tag_13:\n        /* \"#utility.yul\":3521:3525   */\n      0x00\n        /* \"#utility.yul\":3559:3561   */\n      0x20\n        /* \"#utility.yul\":3548:3557   */\n      dup3\n        /* \"#utility.yul\":3544:3562   */\n      add\n        /* \"#utility.yul\":3536:3562   */\n      swap1\n      pop\n        /* \"#utility.yul\":3572:3643   */\n      tag_112\n        /* \"#utility.yul\":3640:3641   */\n      0x00\n        /* \"#utility.yul\":3629:3638   */\n      dup4\n        /* \"#utility.yul\":3625:3642   */\n      add\n        /* \"#utility.yul\":3616:3622   */\n      dup5\n        /* \"#utility.yul\":3572:3643   */\n      tag_46\n      jump\t// in\n    tag_112:\n        /* \"#utility.yul\":3428:3650   */\n      swap3\n      swap2\n      pop\n      pop\n      jump\t// out\n        /* \"#utility.yul\":3656:3755   */\n    tag_47:\n        /* \"#utility.yul\":3708:3714   */\n      0x00\n        /* \"#utility.yul\":3742:3747   */\n      dup2\n        /* \"#utility.yul\":3736:3748   */\n      mload\n        /* \"#utility.yul\":3726:3748   */\n      swap1\n      pop\n        /* \"#utility.yul\":3656:3755   */\n      swap2\n      swap1\n      pop\n      jump\t// out\n        /* \"#utility.yul\":3761:3930   */\n    tag_48:\n        /* \"#utility.yul\":3845:3856   */\n      0x00\n        /* \"#utility.yul\":3879:3885   */\n      dup3\n        /* \"#utility.yul\":3874:3877   */\n      dup3\n        /* \"#utility.yul\":3867:3886   */\n      mstore\n        /* \"#utility.yul\":3919:3923   */\n      0x20\n        /* \"#utility.yul\":3914:3917   */\n      dup3\n        /* \"#utility.yul\":3910:3924   */\n      add\n        /* \"#utility.yul\":3895:3924   */\n      swap1\n      pop\n        /* \"#utility.yul\":3761:3930   */\n      swap3\n      swap2\n      pop\n      pop\n      jump\t// out\n        /* \"#utility.yul\":3936:4075   */\n    tag_49:\n        /* \"#utility.yul\":4025:4031   */\n      dup3\n        /* \"#utility.yul\":4020:4023   */\n      dup2\n        /* \"#utility.yul\":4015:4018   */\n      dup4\n        /* \"#utility.yul\":4009:4032   */\n      mcopy\n        /* \"#utility.yul\":4066:4067   */\n      0x00\n        /* \"#utility.yul\":4057:4063   */\n      dup4\n        /* \"#utility.yul\":4052:4055   */\n      dup4\n        /* \"#utility.yul\":4048:4064   */\n      add\n        /* \"#utility.yul\":4041:4068   */\n      mstore\n        /* \"#utility.yul\":3936:4075   */\n      pop\n      pop\n      pop\n      jump\t// out\n        /* \"#utility.yul\":4081:4458   */\n    tag_50:\n        /* \"#utility.yul\":4169:4172   */\n      0x00\n        /* \"#utility.yul\":4197:4236   */\n      tag_117\n        /* \"#utility.yul\":4230:4235   */\n      dup3\n        /* \"#utility.yul\":4197:4236   */\n      tag_47\n      jump\t// in\n    tag_117:\n        /* \"#utility.yul\":4252:4323   */\n      tag_118\n        /* \"#utility.yul\":4316:4322   */\n      dup2\n        /* \"#utility.yul\":4311:4314   */\n      dup6\n        /* \"#utility.yul\":4252:4323   */\n      tag_48\n      jump\t// in\n    tag_118:\n        /* \"#utility.yul\":4245:4323   */\n      swap4\n      pop\n        /* \"#utility.yul\":4332:4397   */\n      tag_119\n        /* \"#utility.yul\":4390:4396   */\n      dup2\n        /* \"#utility.yul\":4385:4388   */\n      dup6\n        /* \"#utility.yul\":4378:4382   */\n      0x20\n        /* \"#utility.yul\":4371:4376   */\n      dup7\n        /* \"#utility.yul\":4367:4383   */\n      add\n        /* \"#utility.yul\":4332:4397   */\n      tag_49\n      jump\t// in\n    tag_119:\n        /* \"#utility.yul\":4422:4451   */\n      tag_120\n        /* \"#utility.yul\":4444:4450   */\n      dup2\n        /* \"#utility.yul\":4422:4451   */\n      tag_36\n      jump\t// in\n    tag_120:\n        /* \"#utility.yul\":4417:4420   */\n      dup5\n        /* \"#utility.yul\":4413:4452   */\n      add\n        /* \"#utility.yul\":4406:4452   */\n      swap2\n      pop\n        /* \"#utility.yul\":4173:4458   */\n      pop\n        /* \"#utility.yul\":4081:4458   */\n      swap3\n      swap2\n      pop\n      pop\n      jump\t// out\n        /* \"#utility.yul\":4464:4777   */\n    tag_17:\n        /* \"#utility.yul\":4577:4581   */\n      0x00\n        /* \"#utility.yul\":4615:4617   */\n      0x20\n        /* \"#utility.yul\":4604:4613   */\n      dup3\n        /* \"#utility.yul\":4600:4618   */\n      add\n        /* \"#utility.yul\":4592:4618   */\n      swap1\n      pop\n        /* \"#utility.yul\":4664:4673   */\n      dup2\n        /* \"#utility.yul\":4658:4662   */\n      dup2\n        /* \"#utility.yul\":4654:4674   */\n      sub\n        /* \"#utility.yul\":4650:4651   */\n      0x00\n        /* \"#utility.yul\":4639:4648   */\n      dup4\n        /* \"#utility.yul\":4635:4652   */\n      add\n        /* \"#utility.yul\":4628:4675   */\n      mstore\n        /* \"#utility.yul\":4692:4770   */\n      tag_122\n        /* \"#utility.yul\":4765:4769   */\n      dup2\n        /* \"#utility.yul\":4756:4762   */\n      dup5\n        /* \"#utility.yul\":4692:4770   */\n      tag_50\n      jump\t// in\n    tag_122:\n        /* \"#utility.yul\":4684:4770   */\n      swap1\n      pop\n        /* \"#utility.yul\":4464:4777   */\n      swap3\n      swap2\n      pop\n      pop\n      jump\t// out\n        /* \"#utility.yul\":4783:5025   */\n    tag_51:\n        /* \"#utility.yul\":4923:4957   */\n      0x596f75206e65656420746f20626520746865206f776e657220696e206f726465\n        /* \"#utility.yul\":4919:4920   */\n      0x00\n        /* \"#utility.yul\":4911:4917   */\n      dup3\n        /* \"#utility.yul\":4907:4921   */\n      add\n        /* \"#utility.yul\":4900:4958   */\n      mstore\n        /* \"#utility.yul\":4992:5017   */\n      0x7220746f2075706461746520746865206d657373616765000000000000000000\n        /* \"#utility.yul\":4987:4989   */\n      0x20\n        /* \"#utility.yul\":4979:4985   */\n      dup3\n        /* \"#utility.yul\":4975:4990   */\n      add\n        /* \"#utility.yul\":4968:5018   */\n      mstore\n        /* \"#utility.yul\":4783:5025   */\n      pop\n      jump\t// out\n        /* \"#utility.yul\":5031:5397   */\n    tag_52:\n        /* \"#utility.yul\":5173:5176   */\n      0x00\n        /* \"#utility.yul\":5194:5261   */\n      tag_125\n        /* \"#utility.yul\":5258:5260   */\n      0x37\n        /* \"#utility.yul\":5253:5256   */\n      dup4\n        /* \"#utility.yul\":5194:5261   */\n      tag_48\n      jump\t// in\n    tag_125:\n        /* \"#utility.yul\":5187:5261   */\n      swap2\n      pop\n        /* \"#utility.yul\":5270:5363   */\n      tag_126\n        /* \"#utility.yul\":5359:5362   */\n      dup3\n        /* \"#utility.yul\":5270:5363   */\n      tag_51\n      jump\t// in\n    tag_126:\n        /* \"#utility.yul\":5388:5390   */\n      0x40\n        /* \"#utility.yul\":5383:5386   */\n      dup3\n        /* \"#utility.yul\":5379:5391   */\n      add\n        /* \"#utility.yul\":5372:5391   */\n      swap1\n      pop\n        /* \"#utility.yul\":5031:5397   */\n      swap2\n      swap1\n      pop\n      jump\t// out\n        /* \"#utility.yul\":5403:5822   */\n    tag_21:\n        /* \"#utility.yul\":5569:5573   */\n      0x00\n        /* \"#utility.yul\":5607:5609   */\n      0x20\n        /* \"#utility.yul\":5596:5605   */\n      dup3\n        /* \"#utility.yul\":5592:5610   */\n      add\n        /* \"#utility.yul\":5584:5610   */\n      swap1\n      pop\n        /* \"#utility.yul\":5656:5665   */\n      dup2\n        /* \"#utility.yul\":5650:5654   */\n      dup2\n        /* \"#utility.yul\":5646:5666   */\n      sub\n        /* \"#utility.yul\":5642:5643   */\n      0x00\n        /* \"#utility.yul\":5631:5640   */\n      dup4\n        /* \"#utility.yul\":5627:5644   */\n      add\n        /* \"#utility.yul\":5620:5667   */\n      mstore\n        /* \"#utility.yul\":5684:5815   */\n      tag_128\n        /* \"#utility.yul\":5810:5814   */\n      dup2\n        /* \"#utility.yul\":5684:5815   */\n      tag_52\n      jump\t// in\n    tag_128:\n        /* \"#utility.yul\":5676:5815   */\n      swap1\n      pop\n        /* \"#utility.yul\":5403:5822   */\n      swap2\n      swap1\n      pop\n      jump\t// out\n        /* \"#utility.yul\":5828:6008   */\n    tag_53:\n        /* \"#utility.yul\":5876:5953   */\n      0x4e487b7100000000000000000000000000000000000000000000000000000000\n        /* \"#utility.yul\":5873:5874   */\n      0x00\n        /* \"#utility.yul\":5866:5954   */\n      mstore\n        /* \"#utility.yul\":5973:5977   */\n      0x22\n        /* \"#utility.yul\":5970:5971   */\n      0x04\n        /* \"#utility.yul\":5963:5978   */\n      mstore\n        /* \"#utility.yul\":5997:6001   */\n      0x24\n        /* \"#utility.yul\":5994:5995   */\n      0x00\n        /* \"#utility.yul\":5987:6002   */\n      revert\n        /* \"#utility.yul\":6014:6334   */\n    tag_26:\n        /* \"#utility.yul\":6058:6064   */\n      0x00\n        /* \"#utility.yul\":6095:6096   */\n      0x02\n        /* \"#utility.yul\":6089:6093   */\n      dup3\n        /* \"#utility.yul\":6085:6097   */\n      div\n        /* \"#utility.yul\":6075:6097   */\n      swap1\n      pop\n        /* \"#utility.yul\":6142:6143   */\n      0x01\n        /* \"#utility.yul\":6136:6140   */\n      dup3\n        /* \"#utility.yul\":6132:6144   */\n      and\n        /* \"#utility.yul\":6163:6181   */\n      dup1\n        /* \"#utility.yul\":6153:6234   */\n      tag_131\n      jumpi\n        /* \"#utility.yul\":6219:6223   */\n      0x7f\n        /* \"#utility.yul\":6211:6217   */\n      dup3\n        /* \"#utility.yul\":6207:6224   */\n      and\n        /* \"#utility.yul\":6197:6224   */\n      swap2\n      pop\n        /* \"#utility.yul\":6153:6234   */\n    tag_131:\n        /* \"#utility.yul\":6281:6283   */\n      0x20\n        /* \"#utility.yul\":6273:6279   */\n      dup3\n        /* \"#utility.yul\":6270:6284   */\n      lt\n        /* \"#utility.yul\":6250:6268   */\n      dup2\n        /* \"#utility.yul\":6247:6285   */\n      sub\n        /* \"#utility.yul\":6244:6328   */\n      tag_132\n      jumpi\n        /* \"#utility.yul\":6300:6318   */\n      tag_133\n      tag_53\n      jump\t// in\n    tag_133:\n        /* \"#utility.yul\":6244:6328   */\n    tag_132:\n        /* \"#utility.yul\":6065:6334   */\n      pop\n        /* \"#utility.yul\":6014:6334   */\n      swap2\n      swap1\n      pop\n      jump\t// out\n        /* \"#utility.yul\":6340:6481   */\n    tag_54:\n        /* \"#utility.yul\":6389:6393   */\n      0x00\n        /* \"#utility.yul\":6412:6415   */\n      dup2\n        /* \"#utility.yul\":6404:6415   */\n      swap1\n      pop\n        /* \"#utility.yul\":6435:6438   */\n      dup2\n        /* \"#utility.yul\":6432:6433   */\n      0x00\n        /* \"#utility.yul\":6425:6439   */\n      mstore\n        /* \"#utility.yul\":6469:6473   */\n      0x20\n        /* \"#utility.yul\":6466:6467   */\n      0x00\n        /* \"#utility.yul\":6456:6474   */\n      keccak256\n        /* \"#utility.yul\":6448:6474   */\n      swap1\n      pop\n        /* \"#utility.yul\":6340:6481   */\n      swap2\n      swap1\n      pop\n      jump\t// out\n        /* \"#utility.yul\":6487:6580   */\n    tag_55:\n        /* \"#utility.yul\":6524:6530   */\n      0x00\n        /* \"#utility.yul\":6571:6573   */\n      0x20\n        /* \"#utility.yul\":6566:6568   */\n      0x1f\n        /* \"#utility.yul\":6559:6564   */\n      dup4\n        /* \"#utility.yul\":6555:6569   */\n      add\n        /* \"#utility.yul\":6551:6574   */\n      div\n        /* \"#utility.yul\":6541:6574   */\n      swap1\n      pop\n        /* \"#utility.yul\":6487:6580   */\n      swap2\n      swap1\n      pop\n      jump\t// out\n        /* \"#utility.yul\":6586:6693   */\n    tag_56:\n        /* \"#utility.yul\":6630:6638   */\n      0x00\n        /* \"#utility.yul\":6680:6685   */\n      dup3\n        /* \"#utility.yul\":6674:6678   */\n      dup3\n        /* \"#utility.yul\":6670:6686   */\n      shl\n        /* \"#utility.yul\":6649:6686   */\n      swap1\n      pop\n        /* \"#utility.yul\":6586:6693   */\n      swap3\n      swap2\n      pop\n      pop\n      jump\t// out\n        /* \"#utility.yul\":6699:7092   */\n    tag_57:\n        /* \"#utility.yul\":6768:6774   */\n      0x00\n        /* \"#utility.yul\":6818:6819   */\n      0x08\n        /* \"#utility.yul\":6806:6816   */\n      dup4\n        /* \"#utility.yul\":6802:6820   */\n      mul\n        /* \"#utility.yul\":6841:6938   */\n      tag_138\n        /* \"#utility.yul\":6871:6937   */\n      0xffffffffffffffffffffffffffffffffffffffffffffffffffffffffffffffff\n        /* \"#utility.yul\":6860:6869   */\n      dup3\n        /* \"#utility.yul\":6841:6938   */\n      tag_56\n      jump\t// in\n    tag_138:\n        /* \"#utility.yul\":6959:6998   */\n      tag_139\n        /* \"#utility.yul\":6989:6997   */\n      dup7\n        /* \"#utility.yul\":6978:6987   */\n      dup4\n        /* \"#utility.yul\":6959:6998   */\n      tag_56\n      jump\t// in\n    tag_139:\n        /* \"#utility.yul\":6947:6998   */\n      swap6\n      pop\n        /* \"#utility.yul\":7031:7035   */\n      dup1\n        /* \"#utility.yul\":7027:7036   */\n      not\n        /* \"#utility.yul\":7020:7025   */\n      dup5\n        /* \"#utility.yul\":7016:7037   */\n      and\n        /* \"#utility.yul\":7007:7037   */\n      swap4\n      pop\n        /* \"#utility.yul\":7080:7084   */\n      dup1\n        /* \"#utility.yul\":7070:7078   */\n      dup7\n        /* \"#utility.yul\":7066:7085   */\n      and\n        /* \"#utility.yul\":7059:7064   */\n      dup5\n        /* \"#utility.yul\":7056:7086   */\n      or\n        /* \"#utility.yul\":7046:7086   */\n      swap3\n      pop\n        /* \"#utility.yul\":6775:7092   */\n      pop\n      pop\n        /* \"#utility.yul\":6699:7092   */\n      swap4\n      swap3\n      pop\n      pop\n      pop\n      jump\t// out\n        /* \"#utility.yul\":7098:7175   */\n    tag_58:\n        /* \"#utility.yul\":7135:7142   */\n      0x00\n        /* \"#utility.yul\":7164:7169   */\n      dup2\n        /* \"#utility.yul\":7153:7169   */\n      swap1\n      pop\n        /* \"#utility.yul\":7098:7175   */\n      swap2\n      swap1\n      pop\n      jump\t// out\n        /* \"#utility.yul\":7181:7241   */\n    tag_59:\n        /* \"#utility.yul\":7209:7212   */\n      0x00\n        /* \"#utility.yul\":7230:7235   */\n      dup2\n        /* \"#utility.yul\":7223:7235   */\n      swap1\n      pop\n        /* \"#utility.yul\":7181:7241   */\n      swap2\n      swap1\n      pop\n      jump\t// out\n        /* \"#utility.yul\":7247:7389   */\n    tag_60:\n        /* \"#utility.yul\":7297:7306   */\n      0x00\n        /* \"#utility.yul\":7330:7383   */\n      tag_143\n        /* \"#utility.yul\":7348:7382   */\n      tag_144\n        /* \"#utility.yul\":7357:7381   */\n      tag_145\n        /* \"#utility.yul\":7375:7380   */\n      dup5\n        /* \"#utility.yul\":7357:7381   */\n      tag_58\n      jump\t// in\n    tag_145:\n        /* \"#utility.yul\":7348:7382   */\n      tag_59\n      jump\t// in\n    tag_144:\n        /* \"#utility.yul\":7330:7383   */\n      tag_58\n      jump\t// in\n    tag_143:\n        /* \"#utility.yul\":7317:7383   */\n      swap1\n      pop\n        /* \"#utility.yul\":7247:7389   */\n      swap2\n      swap1\n      pop\n      jump\t// out\n        /* \"#utility.yul\":7395:7470   */\n    tag_61:\n        /* \"#utility.yul\":7438:7441   */\n      0x00\n        /* \"#utility.yul\":7459:7464   */\n      dup2\n        /* \"#utility.yul\":7452:7464   */\n      swap1\n      pop\n        /* \"#utility.yul\":7395:7470   */\n      swap2\n      swap1\n      pop\n      jump\t// out\n        /* \"#utility.yul\":7476:7745   */\n    tag_62:\n        /* \"#utility.yul\":7586:7625   */\n      tag_148\n        /* \"#utility.yul\":7617:7624   */\n      dup4\n        /* \"#utility.yul\":7586:7625   */\n      tag_60\n      jump\t// in\n    tag_148:\n        /* \"#utility.yul\":7647:7738   */\n      tag_149\n        /* \"#utility.yul\":7696:7737   */\n      tag_150\n        /* \"#utility.yul\":7720:7736   */\n      dup3\n        /* \"#utility.yul\":7696:7737   */\n      tag_61\n      jump\t// in\n    tag_150:\n        /* \"#utility.yul\":7688:7694   */\n      dup5\n        /* \"#utility.yul\":7681:7685   */\n      dup5\n        /* \"#utility.yul\":7675:7686   */\n      sload\n        /* \"#utility.yul\":7647:7738   */\n      tag_57\n      jump\t// in\n    tag_149:\n        /* \"#utility.yul\":7641:7645   */\n      dup3\n        /* \"#utility.yul\":7634:7739   */\n      sstore\n        /* \"#utility.yul\":7552:7745   */\n      pop\n        /* \"#utility.yul\":7476:7745   */\n      pop\n      pop\n      pop\n      jump\t// out\n        /* \"#utility.yul\":7751:7824   */\n    tag_63:\n        /* \"#utility.yul\":7796:7799   */\n      0x00\n        /* \"#utility.yul\":7817:7818   */\n      0x00\n        /* \"#utility.yul\":7810:7818   */\n      swap1\n      pop\n        /* \"#utility.yul\":7751:7824   */\n      swap1\n      jump\t// out\n        /* \"#utility.yul\":7830:8019   */\n    tag_64:\n        /* \"#utility.yul\":7907:7939   */\n      tag_153\n      tag_63\n      jump\t// in\n    tag_153:\n        /* \"#utility.yul\":7948:8013   */\n      tag_154\n        /* \"#utility.yul\":8006:8012   */\n      dup2\n        /* \"#utility.yul\":7998:8004   */\n      dup5\n        /* \"#utility.yul\":7992:7996   */\n      dup5\n        /* \"#utility.yul\":7948:8013   */\n      tag_62\n      jump\t// in\n    tag_154:\n        /* \"#utility.yul\":7883:8019   */\n      pop\n        /* \"#utility.yul\":7830:8019   */\n      pop\n      pop\n      jump\t// out\n        /* \"#utility.yul\":8025:8211   */\n    tag_65:\n        /* \"#utility.yul\":8085:8205   */\n    tag_156:\n        /* \"#utility.yul\":8102:8105   */\n      dup2\n        /* \"#utility.yul\":8095:8100   */\n      dup2\n        /* \"#utility.yul\":8092:8106   */\n      lt\n        /* \"#utility.yul\":8085:8205   */\n      iszero\n      tag_158\n      jumpi\n        /* \"#utility.yul\":8156:8195   */\n      tag_159\n        /* \"#utility.yul\":8193:8194   */\n      0x00\n        /* \"#utility.yul\":8186:8191   */\n      dup3\n        /* \"#utility.yul\":8156:8195   */\n      tag_64\n      jump\t// in\n    tag_159:\n        /* \"#utility.yul\":8129:8130   */\n      0x01\n        /* \"#utility.yul\":8122:8127   */\n      dup2\n        /* \"#utility.yul\":8118:8131   */\n      add\n        /* \"#utility.yul\":8109:8131   */\n      swap1\n      pop\n        /* \"#utility.yul\":8085:8205   */\n      jump(tag_156)\n    tag_158:\n        /* \"#utility.yul\":8025:8211   */\n      pop\n      pop\n      jump\t// out\n        /* \"#utility.yul\":8217:8760   */\n    tag_66:\n        /* \"#utility.yul\":8318:8320   */\n      0x1f\n        /* \"#utility.yul\":8313:8316   */\n      dup3\n        /* \"#utility.yul\":8310:8321   */\n      gt\n        /* \"#utility.yul\":8307:8753   */\n      iszero\n      tag_161\n      jumpi\n        /* \"#utility.yul\":8352:8390   */\n      tag_162\n        /* \"#utility.yul\":8384:8389   */\n      dup2\n        /* \"#utility.yul\":8352:8390   */\n      tag_54\n      jump\t// in\n    tag_162:\n        /* \"#utility.yul\":8436:8465   */\n      tag_163\n        /* \"#utility.yul\":8454:8464   */\n      dup5\n        /* \"#utility.yul\":8436:8465   */\n      tag_55\n      jump\t// in\n    tag_163:\n        /* \"#utility.yul\":8426:8434   */\n      dup2\n        /* \"#utility.yul\":8422:8466   */\n      add\n        /* \"#utility.yul\":8619:8621   */\n      0x20\n        /* \"#utility.yul\":8607:8617   */\n      dup6\n        /* \"#utility.yul\":8604:8622   */\n      lt\n        /* \"#utility.yul\":8601:8650   */\n      iszero\n      tag_164\n      jumpi\n        /* \"#utility.yul\":8640:8648   */\n      dup2\n        /* \"#utility.yul\":8625:8648   */\n      swap1\n      pop\n        /* \"#utility.yul\":8601:8650   */\n    tag_164:\n        /* \"#utility.yul\":8663:8743   */\n      tag_165\n        /* \"#utility.yul\":8719:8741   */\n      tag_166\n        /* \"#utility.yul\":8737:8740   */\n      dup6\n        /* \"#utility.yul\":8719:8741   */\n      tag_55\n      jump\t// in\n    tag_166:\n        /* \"#utility.yul\":8709:8717   */\n      dup4\n        /* \"#utility.yul\":8705:8742   */\n      add\n        /* \"#utility.yul\":8692:8703   */\n      dup3\n        /* \"#utility.yul\":8663:8743   */\n      tag_65\n      jump\t// in\n    tag_165:\n        /* \"#utility.yul\":8322:8753   */\n      pop\n      pop\n        /* \"#utility.yul\":8307:8753   */\n    tag_161:\n        /* \"#utility.yul\":8217:8760   */\n      pop\n      pop\n      pop\n      jump\t// out\n        /* \"#utility.yul\":8766:8883   */\n    tag_67:\n        /* \"#utility.yul\":8820:8828   */\n      0x00\n        /* \"#utility.yul\":8870:8875   */\n      dup3\n        /* \"#utility.yul\":8864:8868   */\n      dup3\n        /* \"#utility.yul\":8860:8876   */\n      shr\n        /* \"#utility.yul\":8839:8876   */\n      swap1\n      pop\n        /* \"#utility.yul\":8766:8883   */\n      swap3\n      swap2\n      pop\n      pop\n      jump\t// out\n        /* \"#utility.yul\":8889:9058   */\n    tag_68:\n        /* \"#utility.yul\":8933:8939   */\n      0x00\n        /* \"#utility.yul\":8966:9017   */\n      tag_169\n        /* \"#utility.yul\":9014:9015   */\n      0x00\n        /* \"#utility.yul\":9010:9016   */\n      not\n        /* \"#utility.yul\":9002:9007   */\n      dup5\n        /* \"#utility.yul\":8999:9000   */\n      0x08\n        /* \"#utility.yul\":8995:9008   */\n      mul\n        /* \"#utility.yul\":8966:9017   */\n      tag_67\n      jump\t// in\n    tag_169:\n        /* \"#utility.yul\":8962:9018   */\n      not\n        /* \"#utility.yul\":9047:9051   */\n      dup1\n        /* \"#utility.yul\":9041:9045   */\n      dup4\n        /* \"#utility.yul\":9037:9052   */\n      and\n        /* \"#utility.yul\":9027:9052   */\n      swap2\n      pop\n        /* \"#utility.yul\":8940:9058   */\n      pop\n        /* \"#utility.yul\":8889:9058   */\n      swap3\n      swap2\n      pop\n      pop\n      jump\t// out\n        /* \"#utility.yul\":9063:9358   */\n    tag_69:\n        /* \"#utility.yul\":9139:9143   */\n      0x00\n        /* \"#utility.yul\":9285:9314   */\n      tag_171\n        /* \"#utility.yul\":9310:9313   */\n      dup4\n        /* \"#utility.yul\":9304:9308   */\n      dup4\n        /* \"#utility.yul\":9285:9314   */\n      tag_68\n      jump\t// in\n    tag_171:\n        /* \"#utility.yul\":9277:9314   */\n      swap2\n      pop\n        /* \"#utility.yul\":9347:9350   */\n      dup3\n        /* \"#utility.yul\":9344:9345   */\n      0x02\n        /* \"#utility.yul\":9340:9351   */\n      mul\n        /* \"#utility.yul\":9334:9338   */\n      dup3\n        /* \"#utility.yul\":9331:9352   */\n      or\n        /* \"#utility.yul\":9323:9352   */\n      swap1\n      pop\n        /* \"#utility.yul\":9063:9358   */\n      swap3\n      swap2\n      pop\n      pop\n      jump\t// out\n        /* \"#utility.yul\":9363:10758   */\n    tag_24:\n        /* \"#utility.yul\":9480:9517   */\n      tag_173\n        /* \"#utility.yul\":9513:9516   */\n      dup3\n        /* \"#utility.yul\":9480:9517   */\n      tag_47\n      jump\t// in\n    tag_173:\n        /* \"#utility.yul\":9582:9600   */\n      0xffffffffffffffff\n        /* \"#utility.yul\":9574:9580   */\n      dup2\n        /* \"#utility.yul\":9571:9601   */\n      gt\n        /* \"#utility.yul\":9568:9624   */\n      iszero\n      tag_174\n      jumpi\n        /* \"#utility.yul\":9604:9622   */\n      tag_175\n      tag_37\n      jump\t// in\n    tag_175:\n        /* \"#utility.yul\":9568:9624   */\n    tag_174:\n        /* \"#utility.yul\":9648:9686   */\n      tag_176\n        /* \"#utility.yul\":9680:9684   */\n      dup3\n        /* \"#utility.yul\":9674:9685   */\n      sload\n        /* \"#utility.yul\":9648:9686   */\n      tag_26\n      jump\t// in\n    tag_176:\n        /* \"#utility.yul\":9733:9800   */\n      tag_177\n        /* \"#utility.yul\":9793:9799   */\n      dup3\n        /* \"#utility.yul\":9785:9791   */\n      dup3\n        /* \"#utility.yul\":9779:9783   */\n      dup6\n        /* \"#utility.yul\":9733:9800   */\n      tag_66\n      jump\t// in\n    tag_177:\n        /* \"#utility.yul\":9827:9828   */\n      0x00\n        /* \"#utility.yul\":9851:9855   */\n      0x20\n        /* \"#utility.yul\":9838:9855   */\n      swap1\n      pop\n        /* \"#utility.yul\":9883:9885   */\n      0x1f\n        /* \"#utility.yul\":9875:9881   */\n      dup4\n        /* \"#utility.yul\":9872:9886   */\n      gt\n        /* \"#utility.yul\":9900:9901   */\n      0x01\n        /* \"#utility.yul\":9895:10513   */\n      dup2\n      eq\n      tag_179\n      jumpi\n        /* \"#utility.yul\":10557:10558   */\n      0x00\n        /* \"#utility.yul\":10574:10580   */\n      dup5\n        /* \"#utility.yul\":10571:10648   */\n      iszero\n      tag_180\n      jumpi\n        /* \"#utility.yul\":10623:10632   */\n      dup3\n        /* \"#utility.yul\":10618:10621   */\n      dup8\n        /* \"#utility.yul\":10614:10633   */\n      add\n        /* \"#utility.yul\":10608:10634   */\n      mload\n        /* \"#utility.yul\":10599:10634   */\n      swap1\n      pop\n        /* \"#utility.yul\":10571:10648   */\n    tag_180:\n        /* \"#utility.yul\":10674:10741   */\n      tag_181\n        /* \"#utility.yul\":10734:10740   */\n      dup6\n        /* \"#utility.yul\":10727:10732   */\n      dup3\n        /* \"#utility.yul\":10674:10741   */\n      tag_69\n      jump\t// in\n    tag_181:\n        /* \"#utility.yul\":10668:10672   */\n      dup7\n        /* \"#utility.yul\":10661:10742   */\n      sstore\n        /* \"#utility.yul\":10530:10752   */\n      pop\n        /* \"#utility.yul\":9865:10752   */\n      jump(tag_178)\n        /* \"#utility.yul\":9895:10513   */\n    tag_179:\n        /* \"#utility.yul\":9947:9951   */\n      0x1f\n        /* \"#utility.yul\":9943:9952   */\n      not\n        /* \"#utility.yul\":9935:9941   */\n      dup5\n        /* \"#utility.yul\":9931:9953   */\n      and\n        /* \"#utility.yul\":9981:10018   */\n      tag_182\n        /* \"#utility.yul\":10013:10017   */\n      dup7\n        /* \"#utility.yul\":9981:10018   */\n      tag_54\n      jump\t// in\n    tag_182:\n        /* \"#utility.yul\":10040:10041   */\n      0x00\n        /* \"#utility.yul\":10054:10262   */\n    tag_183:\n        /* \"#utility.yul\":10068:10075   */\n      dup3\n        /* \"#utility.yul\":10065:10066   */\n      dup2\n        /* \"#utility.yul\":10062:10076   */\n      lt\n        /* \"#utility.yul\":10054:10262   */\n      iszero\n      tag_185\n      jumpi\n        /* \"#utility.yul\":10147:10156   */\n      dup5\n        /* \"#utility.yul\":10142:10145   */\n      dup10\n        /* \"#utility.yul\":10138:10157   */\n      add\n        /* \"#utility.yul\":10132:10158   */\n      mload\n        /* \"#utility.yul\":10124:10130   */\n      dup3\n        /* \"#utility.yul\":10117:10159   */\n      sstore\n        /* \"#utility.yul\":10198:10199   */\n      0x01\n        /* \"#utility.yul\":10190:10196   */\n      dup3\n        /* \"#utility.yul\":10186:10200   */\n      add\n        /* \"#utility.yul\":10176:10200   */\n      swap2\n      pop\n        /* \"#utility.yul\":10245:10247   */\n      0x20\n        /* \"#utility.yul\":10234:10243   */\n      dup6\n        /* \"#utility.yul\":10230:10248   */\n      add\n        /* \"#utility.yul\":10217:10248   */\n      swap5\n      pop\n        /* \"#utility.yul\":10091:10095   */\n      0x20\n        /* \"#utility.yul\":10088:10089   */\n      dup2\n        /* \"#utility.yul\":10084:10096   */\n      add\n        /* \"#utility.yul\":10079:10096   */\n      swap1\n      pop\n        /* \"#utility.yul\":10054:10262   */\n      jump(tag_183)\n    tag_185:\n        /* \"#utility.yul\":10290:10296   */\n      dup7\n        /* \"#utility.yul\":10281:10288   */\n      dup4\n        /* \"#utility.yul\":10278:10297   */\n      lt\n        /* \"#utility.yul\":10275:10454   */\n      iszero\n      tag_186\n      jumpi\n        /* \"#utility.yul\":10348:10357   */\n      dup5\n        /* \"#utility.yul\":10343:10346   */\n      dup10\n        /* \"#utility.yul\":10339:10358   */\n      add\n        /* \"#utility.yul\":10333:10359   */\n      mload\n        /* \"#utility.yul\":10391:10439   */\n      tag_187\n        /* \"#utility.yul\":10433:10437   */\n      0x1f\n        /* \"#utility.yul\":10425:10431   */\n      dup10\n        /* \"#utility.yul\":10421:10438   */\n      and\n        /* \"#utility.yul\":10410:10419   */\n      dup3\n        /* \"#utility.yul\":10391:10439   */\n      tag_68\n      jump\t// in\n    tag_187:\n        /* \"#utility.yul\":10383:10389   */\n      dup4\n        /* \"#utility.yul\":10376:10440   */\n      sstore\n        /* \"#utility.yul\":10298:10454   */\n      pop\n        /* \"#utility.yul\":10275:10454   */\n    tag_186:\n        /* \"#utility.yul\":10500:10501   */\n      0x01\n        /* \"#utility.yul\":10496:10497   */\n      0x02\n        /* \"#utility.yul\":10488:10494   */\n      dup9\n        /* \"#utility.yul\":10484:10498   */\n      mul\n        /* \"#utility.yul\":10480:10502   */\n      add\n        /* \"#utility.yul\":10474:10478   */\n      dup9\n        /* \"#utility.yul\":10467:10503   */\n      sstore\n        /* \"#utility.yul\":9902:10513   */\n      pop\n      pop\n      pop\n        /* \"#utility.yul\":9865:10752   */\n    tag_178:\n      pop\n        /* \"#utility.yul\":9455:10758   */\n      pop\n      pop\n      pop\n        /* \"#utility.yul\":9363:10758   */\n      pop\n      pop\n      jump\t// out\n\n    auxdata: 0xa2646970667358221220b0c8b62ea5a8033a3b4cef7b81372285a739dfe0326df8a4f3ec017461de7afe64736f6c634300081e0033\n}\n",
				"bytecode": {
					"linkReferences": {},
					"object": "6080604052348015600e575f5ffd5b50335f5f6101000a81548173ffffffffffffffffffffffffffffffffffffffff021916908373ffffffffffffffffffffffffffffffffffffffff1602179055506107f18061005b5f395ff3fe608060405234801561000f575f5ffd5b506004361061003f575f3560e01c80631923be24146100435780638da5cb5b1461005f578063e21f37ce1461007d575b5f5ffd5b61005d60048036038101906100589190610339565b61009b565b005b61006761013c565b60405161007491906103bf565b60405180910390f35b610085610160565b6040516100929190610438565b60405180910390f35b5f5f9054906101000a900473ffffffffffffffffffffffffffffffffffffffff1673ffffffffffffffffffffffffffffffffffffffff163373ffffffffffffffffffffffffffffffffffffffff1614610129576040517f08c379a0000000000000000000000000000000000000000000000000000000008152600401610120906104c8565b60405180910390fd5b806001908161013891906106ec565b5050565b5f5f9054906101000a900473ffffffffffffffffffffffffffffffffffffffff1681565b6001805461016d90610513565b80601f016020809104026020016040519081016040528092919081815260200182805461019990610513565b80156101e45780601f106101bb576101008083540402835291602001916101e4565b820191905f5260205f20905b8154815290600101906020018083116101c757829003601f168201915b505050505081565b5f604051905090565b5f5ffd5b5f5ffd5b5f5ffd5b5f5ffd5b5f601f19601f8301169050919050565b7f4e487b71000000000000000000000000000000000000000000000000000000005f52604160045260245ffd5b61024b82610205565b810181811067ffffffffffffffff8211171561026a57610269610215565b5b80604052505050565b5f61027c6101ec565b90506102888282610242565b919050565b5f67ffffffffffffffff8211156102a7576102a6610215565b5b6102b082610205565b9050602081019050919050565b828183375f83830152505050565b5f6102dd6102d88461028d565b610273565b9050828152602081018484840111156102f9576102f8610201565b5b6103048482856102bd565b509392505050565b5f82601f8301126103205761031f6101fd565b5b81356103308482602086016102cb565b91505092915050565b5f6020828403121561034e5761034d6101f5565b5b5f82013567ffffffffffffffff81111561036b5761036a6101f9565b5b6103778482850161030c565b91505092915050565b5f73ffffffffffffffffffffffffffffffffffffffff82169050919050565b5f6103a982610380565b9050919050565b6103b98161039f565b82525050565b5f6020820190506103d25f8301846103b0565b92915050565b5f81519050919050565b5f82825260208201905092915050565b8281835e5f83830152505050565b5f61040a826103d8565b61041481856103e2565b93506104248185602086016103f2565b61042d81610205565b840191505092915050565b5f6020820190508181035f8301526104508184610400565b905092915050565b7f596f75206e65656420746f20626520746865206f776e657220696e206f7264655f8201527f7220746f2075706461746520746865206d657373616765000000000000000000602082015250565b5f6104b26037836103e2565b91506104bd82610458565b604082019050919050565b5f6020820190508181035f8301526104df816104a6565b9050919050565b7f4e487b71000000000000000000000000000000000000000000000000000000005f52602260045260245ffd5b5f600282049050600182168061052a57607f821691505b60208210810361053d5761053c6104e6565b5b50919050565b5f819050815f5260205f209050919050565b5f6020601f8301049050919050565b5f82821b905092915050565b5f6008830261059f7fffffffffffffffffffffffffffffffffffffffffffffffffffffffffffffffff82610564565b6105a98683610564565b95508019841693508086168417925050509392505050565b5f819050919050565b5f819050919050565b5f6105ed6105e86105e3846105c1565b6105ca565b6105c1565b9050919050565b5f819050919050565b610606836105d3565b61061a610612826105f4565b848454610570565b825550505050565b5f5f905090565b610631610622565b61063c8184846105fd565b505050565b5b8181101561065f576106545f82610629565b600181019050610642565b5050565b601f8211156106a45761067581610543565b61067e84610555565b8101602085101561068d578190505b6106a161069985610555565b830182610641565b50505b505050565b5f82821c905092915050565b5f6106c45f19846008026106a9565b1980831691505092915050565b5f6106dc83836106b5565b9150826002028217905092915050565b6106f5826103d8565b67ffffffffffffffff81111561070e5761070d610215565b5b6107188254610513565b610723828285610663565b5f60209050601f831160018114610754575f8415610742578287015190505b61074c85826106d1565b8655506107b3565b601f19841661076286610543565b5f5b8281101561078957848901518255600182019150602085019450602081019050610764565b868310156107a657848901516107a2601f8916826106b5565b8355505b6001600288020188555050505b50505050505056fea2646970667358221220b0c8b62ea5a8033a3b4cef7b81372285a739dfe0326df8a4f3ec017461de7afe64736f6c634300081e0033",
					"opcodes": "PUSH1 0x80 PUSH1 0x40 MSTORE CALLVALUE DUP1 ISZERO PUSH1 0xE JUMPI PUSH0 PUSH0 REVERT JUMPDEST POP CALLER PUSH0 PUSH0 PUSH2 0x100 EXP DUP2 SLOAD DUP2 PUSH20 0xFFFFFFFFFFFFFFFFFFFFFFFFFFFFFFFFFFFFFFFF MUL NOT AND SWAP1 DUP4 PUSH20 0xFFFFFFFFFFFFFFFFFFFFFFFFFFFFFFFFFFFFFFFF AND MUL OR SWAP1 SSTORE POP PUSH2 0x7F1 DUP1 PUSH2 0x5B PUSH0 CODECOPY PUSH0 RETURN INVALID PUSH1 0x80 PUSH1 0x40 MSTORE CALLVALUE DUP1 ISZERO PUSH2 0xF JUMPI PUSH0 PUSH0 REVERT JUMPDEST POP PUSH1 0x4 CALLDATASIZE LT PUSH2 0x3F JUMPI PUSH0 CALLDATALOAD PUSH1 0xE0 SHR DUP1 PUSH4 0x1923BE24 EQ PUSH2 0x43 JUMPI DUP1 PUSH4 0x8DA5CB5B EQ PUSH2 0x5F JUMPI DUP1 PUSH4 0xE21F37CE EQ PUSH2 0x7D JUMPI JUMPDEST PUSH0 PUSH0 REVERT JUMPDEST PUSH2 0x5D PUSH1 0x4 DUP1 CALLDATASIZE SUB DUP2 ADD SWAP1 PUSH2 0x58 SWAP2 SWAP1 PUSH2 0x339 JUMP JUMPDEST PUSH2 0x9B JUMP JUMPDEST STOP JUMPDEST PUSH2 0x67 PUSH2 0x13C JUMP JUMPDEST PUSH1 0x40 MLOAD PUSH2 0x74 SWAP2 SWAP1 PUSH2 0x3BF JUMP JUMPDEST PUSH1 0x40 MLOAD DUP1 SWAP2 SUB SWAP1 RETURN JUMPDEST PUSH2 0x85 PUSH2 0x160 JUMP JUMPDEST PUSH1 0x40 MLOAD PUSH2 0x92 SWAP2 SWAP1 PUSH2 0x438 JUMP JUMPDEST PUSH1 0x40 MLOAD DUP1 SWAP2 SUB SWAP1 RETURN JUMPDEST PUSH0 PUSH0 SWAP1 SLOAD SWAP1 PUSH2 0x100 EXP SWAP1 DIV PUSH20 0xFFFFFFFFFFFFFFFFFFFFFFFFFFFFFFFFFFFFFFFF AND PUSH20 0xFFFFFFFFFFFFFFFFFFFFFFFFFFFFFFFFFFFFFFFF AND CALLER PUSH20 0xFFFFFFFFFFFFFFFFFFFFFFFFFFFFFFFFFFFFFFFF AND EQ PUSH2 0x129 JUMPI PUSH1 0x40 MLOAD PUSH32 0x8C379A000000000000000000000000000000000000000000000000000000000 DUP2 MSTORE PUSH1 0x4 ADD PUSH2 0x120 SWAP1 PUSH2 0x4C8 JUMP JUMPDEST PUSH1 0x40 MLOAD DUP1 SWAP2 SUB SWAP1 REVERT JUMPDEST DUP1 PUSH1 0x1 SWAP1 DUP2 PUSH2 0x138 SWAP2 SWAP1 PUSH2 0x6EC JUMP JUMPDEST POP POP JUMP JUMPDEST PUSH0 PUSH0 SWAP1 SLOAD SWAP1 PUSH2 0x100 EXP SWAP1 DIV PUSH20 0xFFFFFFFFFFFFFFFFFFFFFFFFFFFFFFFFFFFFFFFF AND DUP2 JUMP JUMPDEST PUSH1 0x1 DUP1 SLOAD PUSH2 0x16D SWAP1 PUSH2 0x513 JUMP JUMPDEST DUP1 PUSH1 0x1F ADD PUSH1 0x20 DUP1 SWAP2 DIV MUL PUSH1 0x20 ADD PUSH1 0x40 MLOAD SWAP1 DUP2 ADD PUSH1 0x40 MSTORE DUP1 SWAP3 SWAP2 SWAP1 DUP2 DUP2 MSTORE PUSH1 0x20 ADD DUP3 DUP1 SLOAD PUSH2 0x199 SWAP1 PUSH2 0x513 JUMP JUMPDEST DUP1 ISZERO PUSH2 0x1E4 JUMPI DUP1 PUSH1 0x1F LT PUSH2 0x1BB JUMPI PUSH2 0x100 DUP1 DUP4 SLOAD DIV MUL DUP4 MSTORE SWAP2 PUSH1 0x20 ADD SWAP2 PUSH2 0x1E4 JUMP JUMPDEST DUP3 ADD SWAP2 SWAP1 PUSH0 MSTORE PUSH1 0x20 PUSH0 KECCAK256 SWAP1 JUMPDEST DUP2 SLOAD DUP2 MSTORE SWAP1 PUSH1 0x1 ADD SWAP1 PUSH1 0x20 ADD DUP1 DUP4 GT PUSH2 0x1C7 JUMPI DUP3 SWAP1 SUB PUSH1 0x1F AND DUP3 ADD SWAP2 JUMPDEST POP POP POP POP POP DUP2 JUMP JUMPDEST PUSH0 PUSH1 0x40 MLOAD SWAP1 POP SWAP1 JUMP JUMPDEST PUSH0 PUSH0 REVERT JUMPDEST PUSH0 PUSH0 REVERT JUMPDEST PUSH0 PUSH0 REVERT JUMPDEST PUSH0 PUSH0 REVERT JUMPDEST PUSH0 PUSH1 0x1F NOT PUSH1 0x1F DUP4 ADD AND SWAP1 POP SWAP2 SWAP1 POP JUMP JUMPDEST PUSH32 0x4E487B7100000000000000000000000000000000000000000000000000000000 PUSH0 MSTORE PUSH1 0x41 PUSH1 0x4 MSTORE PUSH1 0x24 PUSH0 REVERT JUMPDEST PUSH2 0x24B DUP3 PUSH2 0x205 JUMP JUMPDEST DUP2 ADD DUP2 DUP2 LT PUSH8 0xFFFFFFFFFFFFFFFF DUP3 GT OR ISZERO PUSH2 0x26A JUMPI PUSH2 0x269 PUSH2 0x215 JUMP JUMPDEST JUMPDEST DUP1 PUSH1 0x40 MSTORE POP POP POP JUMP JUMPDEST PUSH0 PUSH2 0x27C PUSH2 0x1EC JUMP JUMPDEST SWAP1 POP PUSH2 0x288 DUP3 DUP3 PUSH2 0x242 JUMP JUMPDEST SWAP2 SWAP1 POP JUMP JUMPDEST PUSH0 PUSH8 0xFFFFFFFFFFFFFFFF DUP3 GT ISZERO PUSH2 0x2A7 JUMPI PUSH2 0x2A6 PUSH2 0x215 JUMP JUMPDEST JUMPDEST PUSH2 0x2B0 DUP3 PUSH2 0x205 JUMP JUMPDEST SWAP1 POP PUSH1 0x20 DUP2 ADD SWAP1 POP SWAP2 SWAP1 POP JUMP JUMPDEST DUP3 DUP2 DUP4 CALLDATACOPY PUSH0 DUP4 DUP4 ADD MSTORE POP POP POP JUMP JUMPDEST PUSH0 PUSH2 0x2DD PUSH2 0x2D8 DUP5 PUSH2 0x28D JUMP JUMPDEST PUSH2 0x273 JUMP JUMPDEST SWAP1 POP DUP3 DUP2 MSTORE PUSH1 0x20 DUP2 ADD DUP5 DUP5 DUP5 ADD GT ISZERO PUSH2 0x2F9 JUMPI PUSH2 0x2F8 PUSH2 0x201 JUMP JUMPDEST JUMPDEST PUSH2 0x304 DUP5 DUP3 DUP6 PUSH2 0x2BD JUMP JUMPDEST POP SWAP4 SWAP3 POP POP POP JUMP JUMPDEST PUSH0 DUP3 PUSH1 0x1F DUP4 ADD SLT PUSH2 0x320 JUMPI PUSH2 0x31F PUSH2 0x1FD JUMP JUMPDEST JUMPDEST DUP2 CALLDATALOAD PUSH2 0x330 DUP5 DUP3 PUSH1 0x20 DUP7 ADD PUSH2 0x2CB JUMP JUMPDEST SWAP2 POP POP SWAP3 SWAP2 POP POP JUMP JUMPDEST PUSH0 PUSH1 0x20 DUP3 DUP5 SUB SLT ISZERO PUSH2 0x34E JUMPI PUSH2 0x34D PUSH2 0x1F5 JUMP JUMPDEST JUMPDEST PUSH0 DUP3 ADD CALLDATALOAD PUSH8 0xFFFFFFFFFFFFFFFF DUP2 GT ISZERO PUSH2 0x36B JUMPI PUSH2 0x36A PUSH2 0x1F9 JUMP JUMPDEST JUMPDEST PUSH2 0x377 DUP5 DUP3 DUP6 ADD PUSH2 0x30C JUMP JUMPDEST SWAP2 POP POP SWAP3 SWAP2 POP POP JUMP JUMPDEST PUSH0 PUSH20 0xFFFFFFFFFFFFFFFFFFFFFFFFFFFFFFFFFFFFFFFF DUP3 AND SWAP1 POP SWAP2 SWAP1 POP JUMP JUMPDEST PUSH0 PUSH2 0x3A9 DUP3 PUSH2 0x380 JUMP JUMPDEST SWAP1 POP SWAP2 SWAP1 POP JUMP JUMPDEST PUSH2 0x3B9 DUP2 PUSH2 0x39F JUMP JUMPDEST DUP3 MSTORE POP POP JUMP JUMPDEST PUSH0 PUSH1 0x20 DUP3 ADD SWAP1 POP PUSH2 0x3D2 PUSH0 DUP4 ADD DUP5 PUSH2 0x3B0 JUMP JUMPDEST SWAP3 SWAP2 POP POP JUMP JUMPDEST PUSH0 DUP2 MLOAD SWAP1 POP SWAP2 SWAP1 POP JUMP JUMPDEST PUSH0 DUP3 DUP3 MSTORE PUSH1 0x20 DUP3 ADD SWAP1 POP SWAP3 SWAP2 POP POP JUMP JUMPDEST DUP3 DUP2 DUP4 MCOPY PUSH0 DUP4 DUP4 ADD MSTORE POP POP POP JUMP JUMPDEST PUSH0 PUSH2 0x40A DUP3 PUSH2 0x3D8 JUMP JUMPDEST PUSH2 0x414 DUP2 DUP6 PUSH2 0x3E2 JUMP JUMPDEST SWAP4 POP PUSH2 0x424 DUP2 DUP6 PUSH1 0x20 DUP7 ADD PUSH2 0x3F2 JUMP JUMPDEST PUSH2 0x42D DUP2 PUSH2 0x205 JUMP JUMPDEST DUP5 ADD SWAP2 POP POP SWAP3 SWAP2 POP POP JUMP JUMPDEST PUSH0 PUSH1 0x20 DUP3 ADD SWAP1 POP DUP2 DUP2 SUB PUSH0 DUP4 ADD MSTORE PUSH2 0x450 DUP2 DUP5 PUSH2 0x400 JUMP JUMPDEST SWAP1 POP SWAP3 SWAP2 POP POP JUMP JUMPDEST PUSH32 0x596F75206E65656420746F20626520746865206F776E657220696E206F726465 PUSH0 DUP3 ADD MSTORE PUSH32 0x7220746F2075706461746520746865206D657373616765000000000000000000 PUSH1 0x20 DUP3 ADD MSTORE POP JUMP JUMPDEST PUSH0 PUSH2 0x4B2 PUSH1 0x37 DUP4 PUSH2 0x3E2 JUMP JUMPDEST SWAP2 POP PUSH2 0x4BD DUP3 PUSH2 0x458 JUMP JUMPDEST PUSH1 0x40 DUP3 ADD SWAP1 POP SWAP2 SWAP1 POP JUMP JUMPDEST PUSH0 PUSH1 0x20 DUP3 ADD SWAP1 POP DUP2 DUP2 SUB PUSH0 DUP4 ADD MSTORE PUSH2 0x4DF DUP2 PUSH2 0x4A6 JUMP JUMPDEST SWAP1 POP SWAP2 SWAP1 POP JUMP JUMPDEST PUSH32 0x4E487B7100000000000000000000000000000000000000000000000000000000 PUSH0 MSTORE PUSH1 0x22 PUSH1 0x4 MSTORE PUSH1 0x24 PUSH0 REVERT JUMPDEST PUSH0 PUSH1 0x2 DUP3 DIV SWAP1 POP PUSH1 0x1 DUP3 AND DUP1 PUSH2 0x52A JUMPI PUSH1 0x7F DUP3 AND SWAP2 POP JUMPDEST PUSH1 0x20 DUP3 LT DUP2 SUB PUSH2 0x53D JUMPI PUSH2 0x53C PUSH2 0x4E6 JUMP JUMPDEST JUMPDEST POP SWAP2 SWAP1 POP JUMP JUMPDEST PUSH0 DUP2 SWAP1 POP DUP2 PUSH0 MSTORE PUSH1 0x20 PUSH0 KECCAK256 SWAP1 POP SWAP2 SWAP1 POP JUMP JUMPDEST PUSH0 PUSH1 0x20 PUSH1 0x1F DUP4 ADD DIV SWAP1 POP SWAP2 SWAP1 POP JUMP JUMPDEST PUSH0 DUP3 DUP3 SHL SWAP1 POP SWAP3 SWAP2 POP POP JUMP JUMPDEST PUSH0 PUSH1 0x8 DUP4 MUL PUSH2 0x59F PUSH32 0xFFFFFFFFFFFFFFFFFFFFFFFFFFFFFFFFFFFFFFFFFFFFFFFFFFFFFFFFFFFFFFFF DUP3 PUSH2 0x564 JUMP JUMPDEST PUSH2 0x5A9 DUP7 DUP4 PUSH2 0x564 JUMP JUMPDEST SWAP6 POP DUP1 NOT DUP5 AND SWAP4 POP DUP1 DUP7 AND DUP5 OR SWAP3 POP POP POP SWAP4 SWAP3 POP POP POP JUMP JUMPDEST PUSH0 DUP2 SWAP1 POP SWAP2 SWAP1 POP JUMP JUMPDEST PUSH0 DUP2 SWAP1 POP SWAP2 SWAP1 POP JUMP JUMPDEST PUSH0 PUSH2 0x5ED PUSH2 0x5E8 PUSH2 0x5E3 DUP5 PUSH2 0x5C1 JUMP JUMPDEST PUSH2 0x5CA JUMP JUMPDEST PUSH2 0x5C1 JUMP JUMPDEST SWAP1 POP SWAP2 SWAP1 POP JUMP JUMPDEST PUSH0 DUP2 SWAP1 POP SWAP2 SWAP1 POP JUMP JUMPDEST PUSH2 0x606 DUP4 PUSH2 0x5D3 JUMP JUMPDEST PUSH2 0x61A PUSH2 0x612 DUP3 PUSH2 0x5F4 JUMP JUMPDEST DUP5 DUP5 SLOAD PUSH2 0x570 JUMP JUMPDEST DUP3 SSTORE POP POP POP POP JUMP JUMPDEST PUSH0 PUSH0 SWAP1 POP SWAP1 JUMP JUMPDEST PUSH2 0x631 PUSH2 0x622 JUMP JUMPDEST PUSH2 0x63C DUP2 DUP5 DUP5 PUSH2 0x5FD JUMP JUMPDEST POP POP POP JUMP JUMPDEST JUMPDEST DUP2 DUP2 LT ISZERO PUSH2 0x65F JUMPI PUSH2 0x654 PUSH0 DUP3 PUSH2 0x629 JUMP JUMPDEST PUSH1 0x1 DUP2 ADD SWAP1 POP PUSH2 0x642 JUMP JUMPDEST POP POP JUMP JUMPDEST PUSH1 0x1F DUP3 GT ISZERO PUSH2 0x6A4 JUMPI PUSH2 0x675 DUP2 PUSH2 0x543 JUMP JUMPDEST PUSH2 0x67E DUP5 PUSH2 0x555 JUMP JUMPDEST DUP2 ADD PUSH1 0x20 DUP6 LT ISZERO PUSH2 0x68D JUMPI DUP2 SWAP1 POP JUMPDEST PUSH2 0x6A1 PUSH2 0x699 DUP6 PUSH2 0x555 JUMP JUMPDEST DUP4 ADD DUP3 PUSH2 0x641 JUMP JUMPDEST POP POP JUMPDEST POP POP POP JUMP JUMPDEST PUSH0 DUP3 DUP3 SHR SWAP1 POP SWAP3 SWAP2 POP POP JUMP JUMPDEST PUSH0 PUSH2 0x6C4 PUSH0 NOT DUP5 PUSH1 0x8 MUL PUSH2 0x6A9 JUMP JUMPDEST NOT DUP1 DUP4 AND SWAP2 POP POP SWAP3 SWAP2 POP POP JUMP JUMPDEST PUSH0 PUSH2 0x6DC DUP4 DUP4 PUSH2 0x6B5 JUMP JUMPDEST SWAP2 POP DUP3 PUSH1 0x2 MUL DUP3 OR SWAP1 POP SWAP3 SWAP2 POP POP JUMP JUMPDEST PUSH2 0x6F5 DUP3 PUSH2 0x3D8 JUMP JUMPDEST PUSH8 0xFFFFFFFFFFFFFFFF DUP2 GT ISZERO PUSH2 0x70E JUMPI PUSH2 0x70D PUSH2 0x215 JUMP JUMPDEST JUMPDEST PUSH2 0x718 DUP3 SLOAD PUSH2 0x513 JUMP JUMPDEST PUSH2 0x723 DUP3 DUP3 DUP6 PUSH2 0x663 JUMP JUMPDEST PUSH0 PUSH1 0x20 SWAP1 POP PUSH1 0x1F DUP4 GT PUSH1 0x1 DUP2 EQ PUSH2 0x754 JUMPI PUSH0 DUP5 ISZERO PUSH2 0x742 JUMPI DUP3 DUP8 ADD MLOAD SWAP1 POP JUMPDEST PUSH2 0x74C DUP6 DUP3 PUSH2 0x6D1 JUMP JUMPDEST DUP7 SSTORE POP PUSH2 0x7B3 JUMP JUMPDEST PUSH1 0x1F NOT DUP5 AND PUSH2 0x762 DUP7 PUSH2 0x543 JUMP JUMPDEST PUSH0 JUMPDEST DUP3 DUP2 LT ISZERO PUSH2 0x789 JUMPI DUP5 DUP10 ADD MLOAD DUP3 SSTORE PUSH1 0x1 DUP3 ADD SWAP2 POP PUSH1 0x20 DUP6 ADD SWAP5 POP PUSH1 0x20 DUP2 ADD SWAP1 POP PUSH2 0x764 JUMP JUMPDEST DUP7 DUP4 LT ISZERO PUSH2 0x7A6 JUMPI DUP5 DUP10 ADD MLOAD PUSH2 0x7A2 PUSH1 0x1F DUP10 AND DUP3 PUSH2 0x6B5 JUMP JUMPDEST DUP4 SSTORE POP JUMPDEST PUSH1 0x1 PUSH1 0x2 DUP9 MUL ADD DUP9 SSTORE POP POP POP JUMPDEST POP POP POP POP POP POP JUMP INVALID LOG2 PUSH5 0x6970667358 0x22 SLT KECCAK256 0xB0 0xC8 0xB6 0x2E 0xA5 0xA8 SUB GASPRICE EXTCODESIZE 0x4C 0xEF PUSH28 0x81372285A739DFE0326DF8A4F3EC017461DE7AFE64736F6C63430008 0x1E STOP CALLER "
				},
				"gasEstimates": {
					"creation": {
						"codeDepositCost": "406600",
						"executionCost": "24705",
						"totalCost": "431305"
					},
					"external": {
						"message()": "infinite",
						"owner()": "2507",
						"updateMessage(string)": "infinite"
					}
				},
				"methodIdentifiers": {
					"message()": "e21f37ce",
					"owner()": "8da5cb5b",
					"updateMessage(string)": "1923be24"
				}
			},
			"storageLayout": {
				"storage": [
					{
						"astId": 3,
						"contract": "modifers-vs-ifs.sol:ContractModifiersExample",
						"label": "owner",
						"offset": 0,
						"slot": "0",
						"type": "t_address"
					},
					{
						"astId": 5,
						"contract": "modifers-vs-ifs.sol:ContractModifiersExample",
						"label": "message",
						"offset": 0,
						"slot": "1",
						"type": "t_string_storage"
					}
				],
				"types": {
					"t_address": {
						"encoding": "inplace",
						"label": "address",
						"numberOfBytes": "20"
					},
					"t_string_storage": {
						"encoding": "bytes",
						"label": "string",
						"numberOfBytes": "32"
					}
				}
			},
			"userdoc": {
				"kind": "user",
				"methods": {},
				"version": 1
			}
		}
	}
}