{
	"data": {
		"bytecode": {
			"linkReferences": {},
			"object": "6080604052348015600e575f5ffd5b50335f5f6101000a81548173ffffffffffffffffffffffffffffffffffffffff021916908373ffffffffffffffffffffffffffffffffffffffff1602179055506106d48061005b5f395ff3fe608060405234801561000f575f5ffd5b5060043610610034575f3560e01c80631923be24146100385780638da5cb5b14610054575b5f5ffd5b610052600480360381019061004d9190610282565b610072565b005b61005c610111565b6040516100699190610308565b60405180910390f35b5f5f9054906101000a900473ffffffffffffffffffffffffffffffffffffffff1673ffffffffffffffffffffffffffffffffffffffff163373ffffffffffffffffffffffffffffffffffffffff16036100d65780600190816100d49190610531565b505b6040517f08c379a000000000000000000000000000000000000000000000000000000000815260040161010890610680565b60405180910390fd5b5f5f9054906101000a900473ffffffffffffffffffffffffffffffffffffffff1681565b5f604051905090565b5f5ffd5b5f5ffd5b5f5ffd5b5f5ffd5b5f601f19601f8301169050919050565b7f4e487b71000000000000000000000000000000000000000000000000000000005f52604160045260245ffd5b6101948261014e565b810181811067ffffffffffffffff821117156101b3576101b261015e565b5b80604052505050565b5f6101c5610135565b90506101d1828261018b565b919050565b5f67ffffffffffffffff8211156101f0576101ef61015e565b5b6101f98261014e565b9050602081019050919050565b828183375f83830152505050565b5f610226610221846101d6565b6101bc565b9050828152602081018484840111156102425761024161014a565b5b61024d848285610206565b509392505050565b5f82601f83011261026957610268610146565b5b8135610279848260208601610214565b91505092915050565b5f602082840312156102975761029661013e565b5b5f82013567ffffffffffffffff8111156102b4576102b3610142565b5b6102c084828501610255565b91505092915050565b5f73ffffffffffffffffffffffffffffffffffffffff82169050919050565b5f6102f2826102c9565b9050919050565b610302816102e8565b82525050565b5f60208201905061031b5f8301846102f9565b92915050565b5f81519050919050565b7f4e487b71000000000000000000000000000000000000000000000000000000005f52602260045260245ffd5b5f600282049050600182168061036f57607f821691505b6020821081036103825761038161032b565b5b50919050565b5f819050815f5260205f209050919050565b5f6020601f8301049050919050565b5f82821b905092915050565b5f600883026103e47fffffffffffffffffffffffffffffffffffffffffffffffffffffffffffffffff826103a9565b6103ee86836103a9565b95508019841693508086168417925050509392505050565b5f819050919050565b5f819050919050565b5f61043261042d61042884610406565b61040f565b610406565b9050919050565b5f819050919050565b61044b83610418565b61045f61045782610439565b8484546103b5565b825550505050565b5f5f905090565b610476610467565b610481818484610442565b505050565b5b818110156104a4576104995f8261046e565b600181019050610487565b5050565b601f8211156104e9576104ba81610388565b6104c38461039a565b810160208510156104d2578190505b6104e66104de8561039a565b830182610486565b50505b505050565b5f82821c905092915050565b5f6105095f19846008026104ee565b1980831691505092915050565b5f61052183836104fa565b9150826002028217905092915050565b61053a82610321565b67ffffffffffffffff8111156105535761055261015e565b5b61055d8254610358565b6105688282856104a8565b5f60209050601f831160018114610599575f8415610587578287015190505b6105918582610516565b8655506105f8565b601f1984166105a786610388565b5f5b828110156105ce578489015182556001820191506020850194506020810190506105a9565b868310156105eb57848901516105e7601f8916826104fa565b8355505b6001600288020188555050505b505050505050565b5f82825260208201905092915050565b7f596f75206e65656420746f20626520746865206f776e657220696e206f7264655f8201527f7220746f2075706461746520746865206d657373616765000000000000000000602082015250565b5f61066a603783610600565b915061067582610610565b604082019050919050565b5f6020820190508181035f8301526106978161065e565b905091905056fea26469706673582212208066537d0992459ee41cf321d7ae5a43fcd5a31b7a7c62ce782fc5bfaaba564f64736f6c634300081e0033",
			"opcodes": "PUSH1 0x80 PUSH1 0x40 MSTORE CALLVALUE DUP1 ISZERO PUSH1 0xE JUMPI PUSH0 PUSH0 REVERT JUMPDEST POP CALLER PUSH0 PUSH0 PUSH2 0x100 EXP DUP2 SLOAD DUP2 PUSH20 0xFFFFFFFFFFFFFFFFFFFFFFFFFFFFFFFFFFFFFFFF MUL NOT AND SWAP1 DUP4 PUSH20 0xFFFFFFFFFFFFFFFFFFFFFFFFFFFFFFFFFFFFFFFF AND MUL OR SWAP1 SSTORE POP PUSH2 0x6D4 DUP1 PUSH2 0x5B PUSH0 CODECOPY PUSH0 RETURN INVALID PUSH1 0x80 PUSH1 0x40 MSTORE CALLVALUE DUP1 ISZERO PUSH2 0xF JUMPI PUSH0 PUSH0 REVERT JUMPDEST POP PUSH1 0x4 CALLDATASIZE LT PUSH2 0x34 JUMPI PUSH0 CALLDATALOAD PUSH1 0xE0 SHR DUP1 PUSH4 0x1923BE24 EQ PUSH2 0x38 JUMPI DUP1 PUSH4 0x8DA5CB5B EQ PUSH2 0x54 JUMPI JUMPDEST PUSH0 PUSH0 REVERT JUMPDEST PUSH2 0x52 PUSH1 0x4 DUP1 CALLDATASIZE SUB DUP2 ADD SWAP1 PUSH2 0x4D SWAP2 SWAP1 PUSH2 0x282 JUMP JUMPDEST PUSH2 0x72 JUMP JUMPDEST STOP JUMPDEST PUSH2 0x5C PUSH2 0x111 JUMP JUMPDEST PUSH1 0x40 MLOAD PUSH2 0x69 SWAP2 SWAP1 PUSH2 0x308 JUMP JUMPDEST PUSH1 0x40 MLOAD DUP1 SWAP2 SUB SWAP1 RETURN JUMPDEST PUSH0 PUSH0 SWAP1 SLOAD SWAP1 PUSH2 0x100 EXP SWAP1 DIV PUSH20 0xFFFFFFFFFFFFFFFFFFFFFFFFFFFFFFFFFFFFFFFF AND PUSH20 0xFFFFFFFFFFFFFFFFFFFFFFFFFFFFFFFFFFFFFFFF AND CALLER PUSH20 0xFFFFFFFFFFFFFFFFFFFFFFFFFFFFFFFFFFFFFFFF AND SUB PUSH2 0xD6 JUMPI DUP1 PUSH1 0x1 SWAP1 DUP2 PUSH2 0xD4 SWAP2 SWAP1 PUSH2 0x531 JUMP JUMPDEST POP JUMPDEST PUSH1 0x40 MLOAD PUSH32 0x8C379A000000000000000000000000000000000000000000000000000000000 DUP2 MSTORE PUSH1 0x4 ADD PUSH2 0x108 SWAP1 PUSH2 0x680 JUMP JUMPDEST PUSH1 0x40 MLOAD DUP1 SWAP2 SUB SWAP1 REVERT JUMPDEST PUSH0 PUSH0 SWAP1 SLOAD SWAP1 PUSH2 0x100 EXP SWAP1 DIV PUSH20 0xFFFFFFFFFFFFFFFFFFFFFFFFFFFFFFFFFFFFFFFF AND DUP2 JUMP JUMPDEST PUSH0 PUSH1 0x40 MLOAD SWAP1 POP SWAP1 JUMP JUMPDEST PUSH0 PUSH0 REVERT JUMPDEST PUSH0 PUSH0 REVERT JUMPDEST PUSH0 PUSH0 REVERT JUMPDEST PUSH0 PUSH0 REVERT JUMPDEST PUSH0 PUSH1 0x1F NOT PUSH1 0x1F DUP4 ADD AND SWAP1 POP SWAP2 SWAP1 POP JUMP JUMPDEST PUSH32 0x4E487B7100000000000000000000000000000000000000000000000000000000 PUSH0 MSTORE PUSH1 0x41 PUSH1 0x4 MSTORE PUSH1 0x24 PUSH0 REVERT JUMPDEST PUSH2 0x194 DUP3 PUSH2 0x14E JUMP JUMPDEST DUP2 ADD DUP2 DUP2 LT PUSH8 0xFFFFFFFFFFFFFFFF DUP3 GT OR ISZERO PUSH2 0x1B3 JUMPI PUSH2 0x1B2 PUSH2 0x15E JUMP JUMPDEST JUMPDEST DUP1 PUSH1 0x40 MSTORE POP POP POP JUMP JUMPDEST PUSH0 PUSH2 0x1C5 PUSH2 0x135 JUMP JUMPDEST SWAP1 POP PUSH2 0x1D1 DUP3 DUP3 PUSH2 0x18B JUMP JUMPDEST SWAP2 SWAP1 POP JUMP JUMPDEST PUSH0 PUSH8 0xFFFFFFFFFFFFFFFF DUP3 GT ISZERO PUSH2 0x1F0 JUMPI PUSH2 0x1EF PUSH2 0x15E JUMP JUMPDEST JUMPDEST PUSH2 0x1F9 DUP3 PUSH2 0x14E JUMP JUMPDEST SWAP1 POP PUSH1 0x20 DUP2 ADD SWAP1 POP SWAP2 SWAP1 POP JUMP JUMPDEST DUP3 DUP2 DUP4 CALLDATACOPY PUSH0 DUP4 DUP4 ADD MSTORE POP POP POP JUMP JUMPDEST PUSH0 PUSH2 0x226 PUSH2 0x221 DUP5 PUSH2 0x1D6 JUMP JUMPDEST PUSH2 0x1BC JUMP JUMPDEST SWAP1 POP DUP3 DUP2 MSTORE PUSH1 0x20 DUP2 ADD DUP5 DUP5 DUP5 ADD GT ISZERO PUSH2 0x242 JUMPI PUSH2 0x241 PUSH2 0x14A JUMP JUMPDEST JUMPDEST PUSH2 0x24D DUP5 DUP3 DUP6 PUSH2 0x206 JUMP JUMPDEST POP SWAP4 SWAP3 POP POP POP JUMP JUMPDEST PUSH0 DUP3 PUSH1 0x1F DUP4 ADD SLT PUSH2 0x269 JUMPI PUSH2 0x268 PUSH2 0x146 JUMP JUMPDEST JUMPDEST DUP2 CALLDATALOAD PUSH2 0x279 DUP5 DUP3 PUSH1 0x20 DUP7 ADD PUSH2 0x214 JUMP JUMPDEST SWAP2 POP POP SWAP3 SWAP2 POP POP JUMP JUMPDEST PUSH0 PUSH1 0x20 DUP3 DUP5 SUB SLT ISZERO PUSH2 0x297 JUMPI PUSH2 0x296 PUSH2 0x13E JUMP JUMPDEST JUMPDEST PUSH0 DUP3 ADD CALLDATALOAD PUSH8 0xFFFFFFFFFFFFFFFF DUP2 GT ISZERO PUSH2 0x2B4 JUMPI PUSH2 0x2B3 PUSH2 0x142 JUMP JUMPDEST JUMPDEST PUSH2 0x2C0 DUP5 DUP3 DUP6 ADD PUSH2 0x255 JUMP JUMPDEST SWAP2 POP POP SWAP3 SWAP2 POP POP JUMP JUMPDEST PUSH0 PUSH20 0xFFFFFFFFFFFFFFFFFFFFFFFFFFFFFFFFFFFFFFFF DUP3 AND SWAP1 POP SWAP2 SWAP1 POP JUMP JUMPDEST PUSH0 PUSH2 0x2F2 DUP3 PUSH2 0x2C9 JUMP JUMPDEST SWAP1 POP SWAP2 SWAP1 POP JUMP JUMPDEST PUSH2 0x302 DUP2 PUSH2 0x2E8 JUMP JUMPDEST DUP3 MSTORE POP POP JUMP JUMPDEST PUSH0 PUSH1 0x20 DUP3 ADD SWAP1 POP PUSH2 0x31B PUSH0 DUP4 ADD DUP5 PUSH2 0x2F9 JUMP JUMPDEST SWAP3 SWAP2 POP POP JUMP JUMPDEST PUSH0 DUP2 MLOAD SWAP1 POP SWAP2 SWAP1 POP JUMP JUMPDEST PUSH32 0x4E487B7100000000000000000000000000000000000000000000000000000000 PUSH0 MSTORE PUSH1 0x22 PUSH1 0x4 MSTORE PUSH1 0x24 PUSH0 REVERT JUMPDEST PUSH0 PUSH1 0x2 DUP3 DIV SWAP1 POP PUSH1 0x1 DUP3 AND DUP1 PUSH2 0x36F JUMPI PUSH1 0x7F DUP3 AND SWAP2 POP JUMPDEST PUSH1 0x20 DUP3 LT DUP2 SUB PUSH2 0x382 JUMPI PUSH2 0x381 PUSH2 0x32B JUMP JUMPDEST JUMPDEST POP SWAP2 SWAP1 POP JUMP JUMPDEST PUSH0 DUP2 SWAP1 POP DUP2 PUSH0 MSTORE PUSH1 0x20 PUSH0 KECCAK256 SWAP1 POP SWAP2 SWAP1 POP JUMP JUMPDEST PUSH0 PUSH1 0x20 PUSH1 0x1F DUP4 ADD DIV SWAP1 POP SWAP2 SWAP1 POP JUMP JUMPDEST PUSH0 DUP3 DUP3 SHL SWAP1 POP SWAP3 SWAP2 POP POP JUMP JUMPDEST PUSH0 PUSH1 0x8 DUP4 MUL PUSH2 0x3E4 PUSH32 0xFFFFFFFFFFFFFFFFFFFFFFFFFFFFFFFFFFFFFFFFFFFFFFFFFFFFFFFFFFFFFFFF DUP3 PUSH2 0x3A9 JUMP JUMPDEST PUSH2 0x3EE DUP7 DUP4 PUSH2 0x3A9 JUMP JUMPDEST SWAP6 POP DUP1 NOT DUP5 AND SWAP4 POP DUP1 DUP7 AND DUP5 OR SWAP3 POP POP POP SWAP4 SWAP3 POP POP POP JUMP JUMPDEST PUSH0 DUP2 SWAP1 POP SWAP2 SWAP1 POP JUMP JUMPDEST PUSH0 DUP2 SWAP1 POP SWAP2 SWAP1 POP JUMP JUMPDEST PUSH0 PUSH2 0x432 PUSH2 0x42D PUSH2 0x428 DUP5 PUSH2 0x406 JUMP JUMPDEST PUSH2 0x40F JUMP JUMPDEST PUSH2 0x406 JUMP JUMPDEST SWAP1 POP SWAP2 SWAP1 POP JUMP JUMPDEST PUSH0 DUP2 SWAP1 POP SWAP2 SWAP1 POP JUMP JUMPDEST PUSH2 0x44B DUP4 PUSH2 0x418 JUMP JUMPDEST PUSH2 0x45F PUSH2 0x457 DUP3 PUSH2 0x439 JUMP JUMPDEST DUP5 DUP5 SLOAD PUSH2 0x3B5 JUMP JUMPDEST DUP3 SSTORE POP POP POP POP JUMP JUMPDEST PUSH0 PUSH0 SWAP1 POP SWAP1 JUMP JUMPDEST PUSH2 0x476 PUSH2 0x467 JUMP JUMPDEST PUSH2 0x481 DUP2 DUP5 DUP5 PUSH2 0x442 JUMP JUMPDEST POP POP POP JUMP JUMPDEST JUMPDEST DUP2 DUP2 LT ISZERO PUSH2 0x4A4 JUMPI PUSH2 0x499 PUSH0 DUP3 PUSH2 0x46E JUMP JUMPDEST PUSH1 0x1 DUP2 ADD SWAP1 POP PUSH2 0x487 JUMP JUMPDEST POP POP JUMP JUMPDEST PUSH1 0x1F DUP3 GT ISZERO PUSH2 0x4E9 JUMPI PUSH2 0x4BA DUP2 PUSH2 0x388 JUMP JUMPDEST PUSH2 0x4C3 DUP5 PUSH2 0x39A JUMP JUMPDEST DUP2 ADD PUSH1 0x20 DUP6 LT ISZERO PUSH2 0x4D2 JUMPI DUP2 SWAP1 POP JUMPDEST PUSH2 0x4E6 PUSH2 0x4DE DUP6 PUSH2 0x39A JUMP JUMPDEST DUP4 ADD DUP3 PUSH2 0x486 JUMP JUMPDEST POP POP JUMPDEST POP POP POP JUMP JUMPDEST PUSH0 DUP3 DUP3 SHR SWAP1 POP SWAP3 SWAP2 POP POP JUMP JUMPDEST PUSH0 PUSH2 0x509 PUSH0 NOT DUP5 PUSH1 0x8 MUL PUSH2 0x4EE JUMP JUMPDEST NOT DUP1 DUP4 AND SWAP2 POP POP SWAP3 SWAP2 POP POP JUMP JUMPDEST PUSH0 PUSH2 0x521 DUP4 DUP4 PUSH2 0x4FA JUMP JUMPDEST SWAP2 POP DUP3 PUSH1 0x2 MUL DUP3 OR SWAP1 POP SWAP3 SWAP2 POP POP JUMP JUMPDEST PUSH2 0x53A DUP3 PUSH2 0x321 JUMP JUMPDEST PUSH8 0xFFFFFFFFFFFFFFFF DUP2 GT ISZERO PUSH2 0x553 JUMPI PUSH2 0x552 PUSH2 0x15E JUMP JUMPDEST JUMPDEST PUSH2 0x55D DUP3 SLOAD PUSH2 0x358 JUMP JUMPDEST PUSH2 0x568 DUP3 DUP3 DUP6 PUSH2 0x4A8 JUMP JUMPDEST PUSH0 PUSH1 0x20 SWAP1 POP PUSH1 0x1F DUP4 GT PUSH1 0x1 DUP2 EQ PUSH2 0x599 JUMPI PUSH0 DUP5 ISZERO PUSH2 0x587 JUMPI DUP3 DUP8 ADD MLOAD SWAP1 POP JUMPDEST PUSH2 0x591 DUP6 DUP3 PUSH2 0x516 JUMP JUMPDEST DUP7 SSTORE POP PUSH2 0x5F8 JUMP JUMPDEST PUSH1 0x1F NOT DUP5 AND PUSH2 0x5A7 DUP7 PUSH2 0x388 JUMP JUMPDEST PUSH0 JUMPDEST DUP3 DUP2 LT ISZERO PUSH2 0x5CE JUMPI DUP5 DUP10 ADD MLOAD DUP3 SSTORE PUSH1 0x1 DUP3 ADD SWAP2 POP PUSH1 0x20 DUP6 ADD SWAP5 POP PUSH1 0x20 DUP2 ADD SWAP1 POP PUSH2 0x5A9 JUMP JUMPDEST DUP7 DUP4 LT ISZERO PUSH2 0x5EB JUMPI DUP5 DUP10 ADD MLOAD PUSH2 0x5E7 PUSH1 0x1F DUP10 AND DUP3 PUSH2 0x4FA JUMP JUMPDEST DUP4 SSTORE POP JUMPDEST PUSH1 0x1 PUSH1 0x2 DUP9 MUL ADD DUP9 SSTORE POP POP POP JUMPDEST POP POP POP POP POP POP JUMP JUMPDEST PUSH0 DUP3 DUP3 MSTORE PUSH1 0x20 DUP3 ADD SWAP1 POP SWAP3 SWAP2 POP POP JUMP JUMPDEST PUSH32 0x596F75206E65656420746F20626520746865206F776E657220696E206F726465 PUSH0 DUP3 ADD MSTORE PUSH32 0x7220746F2075706461746520746865206D657373616765000000000000000000 PUSH1 0x20 DUP3 ADD MSTORE POP JUMP JUMPDEST PUSH0 PUSH2 0x66A PUSH1 0x37 DUP4 PUSH2 0x600 JUMP JUMPDEST SWAP2 POP PUSH2 0x675 DUP3 PUSH2 0x610 JUMP JUMPDEST PUSH1 0x40 DUP3 ADD SWAP1 POP SWAP2 SWAP1 POP JUMP JUMPDEST PUSH0 PUSH1 0x20 DUP3 ADD SWAP1 POP DUP2 DUP2 SUB PUSH0 DUP4 ADD MSTORE PUSH2 0x697 DUP2 PUSH2 0x65E JUMP JUMPDEST SWAP1 POP SWAP2 SWAP1 POP JUMP INVALID LOG2 PUSH5 0x6970667358 0x22 SLT KECCAK256 DUP1 PUSH7 0x537D0992459EE4 SHR RETURN 0x21 0xD7 0xAE GAS NUMBER 0xFC 0xD5 LOG3 SHL PUSH27 0x7C62CE782FC5BFAABA564F64736F6C634300081E00330000000000 "
		},
		"gasEstimates": {
			"creation": {
				"codeDepositCost": "349600",
				"executionCost": "24648",
				"totalCost": "374248"
			},
			"external": {
				"owner()": "2507",
				"updateMessage(string)": "infinite"
			}
		},
		"methodIdentifiers": {
			"owner()": "8da5cb5b",
			"updateMessage(string)": "1923be24"
		}
	},
	"abi": [
		{
			"inputs": [],
			"stateMutability": "nonpayable",
			"type": "constructor"
		},
		{
			"inputs": [],
			"name": "owner",
			"outputs": [
				{
					"internalType": "address",
					"name": "",
					"type": "address"
				}
			],
			"stateMutability": "view",
			"type": "function"
		},
		{
			"inputs": [
				{
					"internalType": "string",
					"name": "newMessage",
					"type": "string"
				}
			],
			"name": "updateMessage",
			"outputs": [],
			"stateMutability": "nonpayable",
			"type": "function"
		}
	]
}